{
  "_format": "hh-sol-artifact-1",
  "contractName": "MedicalRecord",
  "sourceName": "contracts/MedicalRecord.sol",
  "abi": [
    {
      "inputs": [],
      "stateMutability": "nonpayable",
      "type": "constructor"
    },
    {
      "anonymous": false,
      "inputs": [
        {
          "indexed": false,
          "internalType": "uint256",
          "name": "id",
          "type": "uint256"
        },
        {
          "indexed": false,
          "internalType": "address",
          "name": "patientWalletAddress",
          "type": "address"
        },
        {
          "indexed": false,
          "internalType": "string",
          "name": "patientIPFSHash",
          "type": "string"
        }
      ],
      "name": "LogPatientData",
      "type": "event"
    },
    {
      "anonymous": false,
      "inputs": [
        {
          "indexed": false,
          "internalType": "address",
          "name": "patientWalletAddress",
          "type": "address"
        },
        {
          "indexed": false,
          "internalType": "string",
          "name": "testResult",
          "type": "string"
        }
      ],
      "name": "LogPatientMedicalReport",
      "type": "event"
    },
    {
      "inputs": [
        {
          "internalType": "address",
          "name": "_patientWalletAddress",
          "type": "address"
        },
        {
          "internalType": "string",
          "name": "_patientIPFSHash",
          "type": "string"
        }
      ],
      "name": "addPatient",
      "outputs": [],
      "stateMutability": "nonpayable",
      "type": "function"
    },
    {
      "inputs": [
        {
          "internalType": "address",
          "name": "_patientWalletAddress",
          "type": "address"
        },
        {
          "internalType": "string",
          "name": "_testResult",
          "type": "string"
        }
      ],
      "name": "addPatientMedicalReport",
      "outputs": [],
      "stateMutability": "nonpayable",
      "type": "function"
    },
    {
      "inputs": [],
      "name": "getAllpatients",
      "outputs": [
        {
          "components": [
            {
              "internalType": "uint256",
              "name": "id",
              "type": "uint256"
            },
            {
              "internalType": "address",
              "name": "patientWalletAddress",
              "type": "address"
            },
            {
              "internalType": "string",
              "name": "patientIPFSHash",
              "type": "string"
            },
            {
              "internalType": "string[]",
              "name": "reports",
              "type": "string[]"
            }
          ],
          "internalType": "struct MedicalRecord.PatientData[]",
          "name": "",
          "type": "tuple[]"
        }
      ],
      "stateMutability": "view",
      "type": "function"
    },
    {
      "inputs": [
        {
          "internalType": "uint256",
          "name": "_index",
          "type": "uint256"
        },
        {
          "internalType": "address",
          "name": "_patientAddress",
          "type": "address"
        }
      ],
      "name": "getPatientData",
      "outputs": [
        {
          "internalType": "uint256",
          "name": "id",
          "type": "uint256"
        },
        {
          "internalType": "address",
          "name": "patientWalletAddress",
          "type": "address"
        },
        {
          "internalType": "string",
          "name": "patientIPFSHash",
          "type": "string"
        },
        {
          "internalType": "string[]",
          "name": "testResult",
          "type": "string[]"
        }
      ],
      "stateMutability": "view",
      "type": "function"
    },
    {
      "inputs": [
        {
          "internalType": "uint256",
          "name": "_index",
          "type": "uint256"
        },
        {
          "internalType": "address",
          "name": "_patientAddress",
          "type": "address"
        }
      ],
      "name": "getPatientReport",
      "outputs": [
        {
          "internalType": "address",
          "name": "patientWalletAddress",
          "type": "address"
        },
        {
          "internalType": "string[]",
          "name": "testResult",
          "type": "string[]"
        }
      ],
      "stateMutability": "view",
      "type": "function"
    },
    {
      "inputs": [],
      "name": "getPatientTestResults",
      "outputs": [
        {
          "components": [
            {
              "internalType": "address",
              "name": "patientWalletAddress",
              "type": "address"
            },
            {
              "internalType": "string",
              "name": "testResult",
              "type": "string"
            }
          ],
          "internalType": "struct MedicalRecord.PatientMedicalReport[]",
          "name": "",
          "type": "tuple[]"
        }
      ],
      "stateMutability": "view",
      "type": "function"
    },
    {
      "inputs": [
        {
          "internalType": "address",
          "name": "",
          "type": "address"
        }
      ],
      "name": "isExist",
      "outputs": [
        {
          "internalType": "bool",
          "name": "",
          "type": "bool"
        }
      ],
      "stateMutability": "view",
      "type": "function"
    },
    {
      "inputs": [],
      "name": "owner",
      "outputs": [
        {
          "internalType": "address",
          "name": "",
          "type": "address"
        }
      ],
      "stateMutability": "view",
      "type": "function"
    },
    {
      "inputs": [],
      "name": "patientCount",
      "outputs": [
        {
          "internalType": "uint256",
          "name": "",
          "type": "uint256"
        }
      ],
      "stateMutability": "view",
      "type": "function"
    },
    {
      "inputs": [],
      "name": "patientId",
      "outputs": [
        {
          "internalType": "uint256",
          "name": "_value",
          "type": "uint256"
        }
      ],
      "stateMutability": "view",
      "type": "function"
    },
    {
      "inputs": [
        {
          "internalType": "uint256",
          "name": "",
          "type": "uint256"
        }
      ],
      "name": "patientReports",
      "outputs": [
        {
          "internalType": "address",
          "name": "patientWalletAddress",
          "type": "address"
        },
        {
          "internalType": "string",
          "name": "testResult",
          "type": "string"
        }
      ],
      "stateMutability": "view",
      "type": "function"
    },
    {
      "inputs": [
        {
          "internalType": "uint256",
          "name": "",
          "type": "uint256"
        }
      ],
      "name": "patients",
      "outputs": [
        {
          "internalType": "uint256",
          "name": "id",
          "type": "uint256"
        },
        {
          "internalType": "address",
          "name": "patientWalletAddress",
          "type": "address"
        },
        {
          "internalType": "string",
          "name": "patientIPFSHash",
          "type": "string"
        }
      ],
      "stateMutability": "view",
      "type": "function"
    }
  ],
  "bytecode": "0x608060405234801561001057600080fd5b5033600460006101000a81548173ffffffffffffffffffffffffffffffffffffffff021916908373ffffffffffffffffffffffffffffffffffffffff160217905550612290806100616000396000f3fe608060405234801561001057600080fd5b50600436106100b35760003560e01c80638da5cb5b116100715780638da5cb5b146101a457806393119a83146101c2578063a0303c41146101f4578063ba3127ec14610212578063db66c06014610243578063e07f44441461025f576100b3565b806213eb4b146100b8578063047e6ea7146100e857806308ca42d714610106578063435d79351461013957806354187542146101575780636df0b3a214610173575b600080fd5b6100d260048036038101906100cd9190611507565b61027d565b6040516100df919061154f565b60405180910390f35b6100f061029d565b6040516100fd9190611810565b60405180910390f35b610120600480360381019061011b919061185e565b610557565b604051610130949392919061198c565b60405180910390f35b61014161084b565b60405161014e9190611ade565b60405180910390f35b610171600480360381019061016c9190611c35565b610a22565b005b61018d60048036038101906101889190611c91565b610cdf565b60405161019b929190611cbe565b60405180910390f35b6101ac610dbb565b6040516101b99190611cee565b60405180910390f35b6101dc60048036038101906101d79190611c91565b610de1565b6040516101eb93929190611d09565b60405180910390f35b6101fc610ec3565b6040516102099190611d47565b60405180910390f35b61022c6004803603810190610227919061185e565b610ec9565b60405161023a929190611d62565b60405180910390f35b61025d60048036038101906102589190611c35565b6110de565b005b61026761138b565b6040516102749190611d47565b60405180910390f35b60056020528060005260406000206000915054906101000a900460ff1681565b6060600460009054906101000a900473ffffffffffffffffffffffffffffffffffffffff1673ffffffffffffffffffffffffffffffffffffffff163373ffffffffffffffffffffffffffffffffffffffff161461032f576040517f08c379a000000000000000000000000000000000000000000000000000000000815260040161032690611dde565b60405180910390fd5b6002805480602002602001604051908101604052809291908181526020016000905b8282101561054e5783829060005260206000209060040201604051806080016040529081600082015481526020016001820160009054906101000a900473ffffffffffffffffffffffffffffffffffffffff1673ffffffffffffffffffffffffffffffffffffffff1673ffffffffffffffffffffffffffffffffffffffff1681526020016002820180546103e490611e2d565b80601f016020809104026020016040519081016040528092919081815260200182805461041090611e2d565b801561045d5780601f106104325761010080835404028352916020019161045d565b820191906000526020600020905b81548152906001019060200180831161044057829003601f168201915b5050505050815260200160038201805480602002602001604051908101604052809291908181526020016000905b828210156105375783829060005260206000200180546104aa90611e2d565b80601f01602080910402602001604051908101604052809291908181526020018280546104d690611e2d565b80156105235780601f106104f857610100808354040283529160200191610523565b820191906000526020600020905b81548152906001019060200180831161050657829003601f168201915b50505050508152602001906001019061048b565b505050508152505081526020019060010190610351565b50505050905090565b60008060608084600460009054906101000a900473ffffffffffffffffffffffffffffffffffffffff1673ffffffffffffffffffffffffffffffffffffffff163373ffffffffffffffffffffffffffffffffffffffff1614806105e557508073ffffffffffffffffffffffffffffffffffffffff163373ffffffffffffffffffffffffffffffffffffffff16145b610624576040517f08c379a000000000000000000000000000000000000000000000000000000000815260040161061b90611dde565b60405180910390fd5b6002878154811061063857610637611e5e565b5b9060005260206000209060040201600001546002888154811061065e5761065d611e5e565b5b906000526020600020906004020160010160009054906101000a900473ffffffffffffffffffffffffffffffffffffffff16600289815481106106a4576106a3611e5e565b5b906000526020600020906004020160020160028a815481106106c9576106c8611e5e565b5b90600052602060002090600402016003018180546106e690611e2d565b80601f016020809104026020016040519081016040528092919081815260200182805461071290611e2d565b801561075f5780601f106107345761010080835404028352916020019161075f565b820191906000526020600020905b81548152906001019060200180831161074257829003601f168201915b5050505050915080805480602002602001604051908101604052809291908181526020016000905b828210156108335783829060005260206000200180546107a690611e2d565b80601f01602080910402602001604051908101604052809291908181526020018280546107d290611e2d565b801561081f5780601f106107f45761010080835404028352916020019161081f565b820191906000526020600020905b81548152906001019060200180831161080257829003601f168201915b505050505081526020019060010190610787565b50505050905094509450945094505092959194509250565b6060600460009054906101000a900473ffffffffffffffffffffffffffffffffffffffff1673ffffffffffffffffffffffffffffffffffffffff163373ffffffffffffffffffffffffffffffffffffffff16146108dd576040517f08c379a00000000000000000000000000000000000000000000000000000000081526004016108d490611dde565b60405180910390fd5b6003805480602002602001604051908101604052809291908181526020016000905b82821015610a1957838290600052602060002090600202016040518060400160405290816000820160009054906101000a900473ffffffffffffffffffffffffffffffffffffffff1673ffffffffffffffffffffffffffffffffffffffff1673ffffffffffffffffffffffffffffffffffffffff16815260200160018201805461098890611e2d565b80601f01602080910402602001604051908101604052809291908181526020018280546109b490611e2d565b8015610a015780601f106109d657610100808354040283529160200191610a01565b820191906000526020600020905b8154815290600101906020018083116109e457829003601f168201915b505050505081525050815260200190600101906108ff565b50505050905090565b600460009054906101000a900473ffffffffffffffffffffffffffffffffffffffff1673ffffffffffffffffffffffffffffffffffffffff163373ffffffffffffffffffffffffffffffffffffffff1614610ab2576040517f08c379a0000000000000000000000000000000000000000000000000000000008152600401610aa990611dde565b60405180910390fd5b6000805b600280549050811015610be4578373ffffffffffffffffffffffffffffffffffffffff1660028281548110610aee57610aed611e5e565b5b906000526020600020906004020160010160009054906101000a900473ffffffffffffffffffffffffffffffffffffffff1673ffffffffffffffffffffffffffffffffffffffff1603610bd1576001915060028181548110610b5357610b52611e5e565b5b906000526020600020906004020160030183908060018154018082558091505060019003906000526020600020016000909190919091509081610b969190612039565b507f38611a2841d23f7b7d1849ca896cc1f78d94528fb5744bebf43879735f527ead8484604051610bc8929190611cbe565b60405180910390a15b8080610bdc9061213a565b915050610ab6565b5080610c25576040517f08c379a0000000000000000000000000000000000000000000000000000000008152600401610c1c906121ce565b60405180910390fd5b600360405180604001604052808573ffffffffffffffffffffffffffffffffffffffff16815260200184815250908060018154018082558091505060019003906000526020600020906002020160009091909190915060008201518160000160006101000a81548173ffffffffffffffffffffffffffffffffffffffff021916908373ffffffffffffffffffffffffffffffffffffffff1602179055506020820151816001019081610cd79190612039565b505050505050565b60038181548110610cef57600080fd5b90600052602060002090600202016000915090508060000160009054906101000a900473ffffffffffffffffffffffffffffffffffffffff1690806001018054610d3890611e2d565b80601f0160208091040260200160405190810160405280929190818152602001828054610d6490611e2d565b8015610db15780601f10610d8657610100808354040283529160200191610db1565b820191906000526020600020905b815481529060010190602001808311610d9457829003601f168201915b5050505050905082565b600460009054906101000a900473ffffffffffffffffffffffffffffffffffffffff1681565b60028181548110610df157600080fd5b90600052602060002090600402016000915090508060000154908060010160009054906101000a900473ffffffffffffffffffffffffffffffffffffffff1690806002018054610e4090611e2d565b80601f0160208091040260200160405190810160405280929190818152602001828054610e6c90611e2d565b8015610eb95780601f10610e8e57610100808354040283529160200191610eb9565b820191906000526020600020905b815481529060010190602001808311610e9c57829003601f168201915b5050505050905083565b60015481565b6000606082600460009054906101000a900473ffffffffffffffffffffffffffffffffffffffff1673ffffffffffffffffffffffffffffffffffffffff163373ffffffffffffffffffffffffffffffffffffffff161480610f5557508073ffffffffffffffffffffffffffffffffffffffff163373ffffffffffffffffffffffffffffffffffffffff16145b610f94576040517f08c379a0000000000000000000000000000000000000000000000000000000008152600401610f8b90611dde565b60405180910390fd5b60038581548110610fa857610fa7611e5e565b5b906000526020600020906002020160000160009054906101000a900473ffffffffffffffffffffffffffffffffffffffff1660028681548110610fee57610fed611e5e565b5b906000526020600020906004020160030180805480602002602001604051908101604052809291908181526020016000905b828210156110cc57838290600052602060002001805461103f90611e2d565b80601f016020809104026020016040519081016040528092919081815260200182805461106b90611e2d565b80156110b85780601f1061108d576101008083540402835291602001916110b8565b820191906000526020600020905b81548152906001019060200180831161109b57829003601f168201915b505050505081526020019060010190611020565b50505050905092509250509250929050565b600460009054906101000a900473ffffffffffffffffffffffffffffffffffffffff1673ffffffffffffffffffffffffffffffffffffffff163373ffffffffffffffffffffffffffffffffffffffff161461116e576040517f08c379a000000000000000000000000000000000000000000000000000000000815260040161116590611dde565b60405180910390fd5b600560008373ffffffffffffffffffffffffffffffffffffffff1673ffffffffffffffffffffffffffffffffffffffff16815260200190815260200160002060009054906101000a900460ff16156111fb576040517f08c379a00000000000000000000000000000000000000000000000000000000081526004016111f29061223a565b60405180910390fd5b60006112076000611397565b90506060600260405180608001604052808481526020018673ffffffffffffffffffffffffffffffffffffffff1681526020018581526020018381525090806001815401808255809150506001900390600052602060002090600402016000909190919091506000820151816000015560208201518160010160006101000a81548173ffffffffffffffffffffffffffffffffffffffff021916908373ffffffffffffffffffffffffffffffffffffffff16021790555060408201518160020190816112d39190612039565b5060608201518160030190805190602001906112f09291906113bb565b5050506112fd60006113a5565b600560008573ffffffffffffffffffffffffffffffffffffffff1673ffffffffffffffffffffffffffffffffffffffff16815260200190815260200160002060009054906101000a9050507fee66816bcbe5f53d6a5ce94214609a34396364a963d8e8b30c52e5fead95940f600154858560405161137d93929190611d09565b60405180910390a150505050565b60008060000154905081565b600081600001549050919050565b6001816000016000828254019250508190555050565b828054828255906000526020600020908101928215611403579160200282015b828111156114025782518290816113f29190612039565b50916020019190600101906113db565b5b5090506114109190611414565b5090565b5b80821115611434576000818161142b9190611438565b50600101611415565b5090565b50805461144490611e2d565b6000825580601f106114565750611475565b601f0160209004906000526020600020908101906114749190611478565b5b50565b5b80821115611491576000816000905550600101611479565b5090565b6000604051905090565b600080fd5b600080fd5b600073ffffffffffffffffffffffffffffffffffffffff82169050919050565b60006114d4826114a9565b9050919050565b6114e4816114c9565b81146114ef57600080fd5b50565b600081359050611501816114db565b92915050565b60006020828403121561151d5761151c61149f565b5b600061152b848285016114f2565b91505092915050565b60008115159050919050565b61154981611534565b82525050565b60006020820190506115646000830184611540565b92915050565b600081519050919050565b600082825260208201905092915050565b6000819050602082019050919050565b6000819050919050565b6115a981611596565b82525050565b6115b8816114c9565b82525050565b600081519050919050565b600082825260208201905092915050565b60005b838110156115f85780820151818401526020810190506115dd565b60008484015250505050565b6000601f19601f8301169050919050565b6000611620826115be565b61162a81856115c9565b935061163a8185602086016115da565b61164381611604565b840191505092915050565b600081519050919050565b600082825260208201905092915050565b6000819050602082019050919050565b60006116868383611615565b905092915050565b6000602082019050919050565b60006116a68261164e565b6116b08185611659565b9350836020820285016116c28561166a565b8060005b858110156116fe57848403895281516116df858261167a565b94506116ea8361168e565b925060208a019950506001810190506116c6565b50829750879550505050505092915050565b600060808301600083015161172860008601826115a0565b50602083015161173b60208601826115af565b50604083015184820360408601526117538282611615565b9150506060830151848203606086015261176d828261169b565b9150508091505092915050565b60006117868383611710565b905092915050565b6000602082019050919050565b60006117a68261156a565b6117b08185611575565b9350836020820285016117c285611586565b8060005b858110156117fe57848403895281516117df858261177a565b94506117ea8361178e565b925060208a019950506001810190506117c6565b50829750879550505050505092915050565b6000602082019050818103600083015261182a818461179b565b905092915050565b61183b81611596565b811461184657600080fd5b50565b60008135905061185881611832565b92915050565b600080604083850312156118755761187461149f565b5b600061188385828601611849565b9250506020611894858286016114f2565b9150509250929050565b6118a781611596565b82525050565b6118b6816114c9565b82525050565b600082825260208201905092915050565b60006118d8826115be565b6118e281856118bc565b93506118f28185602086016115da565b6118fb81611604565b840191505092915050565b600082825260208201905092915050565b60006119228261164e565b61192c8185611906565b93508360208202850161193e8561166a565b8060005b8581101561197a578484038952815161195b858261167a565b94506119668361168e565b925060208a01995050600181019050611942565b50829750879550505050505092915050565b60006080820190506119a1600083018761189e565b6119ae60208301866118ad565b81810360408301526119c081856118cd565b905081810360608301526119d48184611917565b905095945050505050565b600081519050919050565b600082825260208201905092915050565b6000819050602082019050919050565b6000604083016000830151611a2360008601826115af565b5060208301518482036020860152611a3b8282611615565b9150508091505092915050565b6000611a548383611a0b565b905092915050565b6000602082019050919050565b6000611a74826119df565b611a7e81856119ea565b935083602082028501611a90856119fb565b8060005b85811015611acc5784840389528151611aad8582611a48565b9450611ab883611a5c565b925060208a01995050600181019050611a94565b50829750879550505050505092915050565b60006020820190508181036000830152611af88184611a69565b905092915050565b600080fd5b600080fd5b7f4e487b7100000000000000000000000000000000000000000000000000000000600052604160045260246000fd5b611b4282611604565b810181811067ffffffffffffffff82111715611b6157611b60611b0a565b5b80604052505050565b6000611b74611495565b9050611b808282611b39565b919050565b600067ffffffffffffffff821115611ba057611b9f611b0a565b5b611ba982611604565b9050602081019050919050565b82818337600083830152505050565b6000611bd8611bd384611b85565b611b6a565b905082815260208101848484011115611bf457611bf3611b05565b5b611bff848285611bb6565b509392505050565b600082601f830112611c1c57611c1b611b00565b5b8135611c2c848260208601611bc5565b91505092915050565b60008060408385031215611c4c57611c4b61149f565b5b6000611c5a858286016114f2565b925050602083013567ffffffffffffffff811115611c7b57611c7a6114a4565b5b611c8785828601611c07565b9150509250929050565b600060208284031215611ca757611ca661149f565b5b6000611cb584828501611849565b91505092915050565b6000604082019050611cd360008301856118ad565b8181036020830152611ce581846118cd565b90509392505050565b6000602082019050611d0360008301846118ad565b92915050565b6000606082019050611d1e600083018661189e565b611d2b60208301856118ad565b8181036040830152611d3d81846118cd565b9050949350505050565b6000602082019050611d5c600083018461189e565b92915050565b6000604082019050611d7760008301856118ad565b8181036020830152611d898184611917565b90509392505050565b7f596f7520617265206e6f7420746865206f776e65720000000000000000000000600082015250565b6000611dc86015836118bc565b9150611dd382611d92565b602082019050919050565b60006020820190508181036000830152611df781611dbb565b9050919050565b7f4e487b7100000000000000000000000000000000000000000000000000000000600052602260045260246000fd5b60006002820490506001821680611e4557607f821691505b602082108103611e5857611e57611dfe565b5b50919050565b7f4e487b7100000000000000000000000000000000000000000000000000000000600052603260045260246000fd5b60008190508160005260206000209050919050565b60006020601f8301049050919050565b600082821b905092915050565b600060088302611eef7fffffffffffffffffffffffffffffffffffffffffffffffffffffffffffffffff82611eb2565b611ef98683611eb2565b95508019841693508086168417925050509392505050565b6000819050919050565b6000611f36611f31611f2c84611596565b611f11565b611596565b9050919050565b6000819050919050565b611f5083611f1b565b611f64611f5c82611f3d565b848454611ebf565b825550505050565b600090565b611f79611f6c565b611f84818484611f47565b505050565b5b81811015611fa857611f9d600082611f71565b600181019050611f8a565b5050565b601f821115611fed57611fbe81611e8d565b611fc784611ea2565b81016020851015611fd6578190505b611fea611fe285611ea2565b830182611f89565b50505b505050565b600082821c905092915050565b600061201060001984600802611ff2565b1980831691505092915050565b60006120298383611fff565b9150826002028217905092915050565b612042826115be565b67ffffffffffffffff81111561205b5761205a611b0a565b5b6120658254611e2d565b612070828285611fac565b600060209050601f8311600181146120a35760008415612091578287015190505b61209b858261201d565b865550612103565b601f1984166120b186611e8d565b60005b828110156120d9578489015182556001820191506020850194506020810190506120b4565b868310156120f657848901516120f2601f891682611fff565b8355505b6001600288020188555050505b505050505050565b7f4e487b7100000000000000000000000000000000000000000000000000000000600052601160045260246000fd5b600061214582611596565b91507fffffffffffffffffffffffffffffffffffffffffffffffffffffffffffffffff82036121775761217661210b565b5b600182019050919050565b7f50617469656e74207265636f726420646f6573206e6f74206578697374000000600082015250565b60006121b8601d836118bc565b91506121c382612182565b602082019050919050565b600060208201905081810360008301526121e7816121ab565b9050919050565b7f50617469656e74207265636f726420616c726561647920657869737400000000600082015250565b6000612224601c836118bc565b915061222f826121ee565b602082019050919050565b6000602082019050818103600083015261225381612217565b905091905056fea26469706673582212203cc724cb3f20a2355f64304ba46f432b7750421601160c2a11798d323cb6116164736f6c63430008110033",
  "linkReferences": {},
  "deployedLinkReferences": {}
}