{
  "_format": "hh-sol-artifact-1",
  "contractName": "MedicalRecord",
  "sourceName": "contracts/MedicalRecord.sol",
  "abi": [
    {
      "inputs": [],
      "stateMutability": "nonpayable",
      "type": "constructor"
    },
    {
      "anonymous": false,
      "inputs": [
        {
          "indexed": false,
          "internalType": "uint256",
          "name": "id",
          "type": "uint256"
        },
        {
          "indexed": false,
          "internalType": "address",
          "name": "patientWalletAddress",
          "type": "address"
        },
        {
          "indexed": false,
          "internalType": "string",
          "name": "patientIPFSHash",
          "type": "string"
        },
        {
          "indexed": false,
          "internalType": "bytes32",
          "name": "txHash",
          "type": "bytes32"
        },
        {
          "indexed": false,
          "internalType": "uint256",
          "name": "dateCreated",
          "type": "uint256"
        }
      ],
      "name": "LogPatientData",
      "type": "event"
    },
    {
      "anonymous": false,
      "inputs": [
        {
          "indexed": false,
          "internalType": "address",
          "name": "patientWalletAddress",
          "type": "address"
        },
        {
          "indexed": false,
          "internalType": "string",
          "name": "testResult",
          "type": "string"
        },
        {
          "indexed": false,
          "internalType": "bytes32",
          "name": "txHash",
          "type": "bytes32"
        },
        {
          "indexed": false,
          "internalType": "uint256",
          "name": "dateCreated",
          "type": "uint256"
        }
      ],
      "name": "LogPatientMedicalReport",
      "type": "event"
    },
    {
      "inputs": [
        {
          "internalType": "bytes32",
          "name": "hash",
          "type": "bytes32"
        }
      ],
      "name": "addHash",
      "outputs": [],
      "stateMutability": "nonpayable",
      "type": "function"
    },
    {
      "inputs": [
        {
          "internalType": "address",
          "name": "_patientWalletAddress",
          "type": "address"
        },
        {
          "internalType": "string",
          "name": "_patientIPFSHash",
          "type": "string"
        }
      ],
      "name": "addPatient",
      "outputs": [],
      "stateMutability": "nonpayable",
      "type": "function"
    },
    {
      "inputs": [
        {
          "internalType": "address",
          "name": "_patientWalletAddress",
          "type": "address"
        },
        {
          "internalType": "string",
          "name": "_testResult",
          "type": "string"
        }
      ],
      "name": "addPatientMedicalReport",
      "outputs": [],
      "stateMutability": "nonpayable",
      "type": "function"
    },
    {
      "inputs": [],
      "name": "getAllpatients",
      "outputs": [
        {
          "components": [
            {
              "internalType": "uint256",
              "name": "id",
              "type": "uint256"
            },
            {
              "internalType": "address",
              "name": "patientWalletAddress",
              "type": "address"
            },
            {
              "internalType": "string",
              "name": "patientIPFSHash",
              "type": "string"
            },
            {
              "internalType": "string[]",
              "name": "reports",
              "type": "string[]"
            },
            {
              "internalType": "bytes32",
              "name": "txHash",
              "type": "bytes32"
            },
            {
              "internalType": "uint256",
              "name": "dateCreated",
              "type": "uint256"
            }
          ],
          "internalType": "struct MedicalRecord.PatientData[]",
          "name": "",
          "type": "tuple[]"
        }
      ],
      "stateMutability": "view",
      "type": "function"
    },
    {
      "inputs": [
        {
          "internalType": "uint256",
          "name": "_index",
          "type": "uint256"
        },
        {
          "internalType": "address",
          "name": "_patientAddress",
          "type": "address"
        }
      ],
      "name": "getPatientData",
      "outputs": [
        {
          "internalType": "uint256",
          "name": "id",
          "type": "uint256"
        },
        {
          "internalType": "address",
          "name": "patientWalletAddress",
          "type": "address"
        },
        {
          "internalType": "string",
          "name": "patientIPFSHash",
          "type": "string"
        },
        {
          "internalType": "string[]",
          "name": "testResult",
          "type": "string[]"
        },
        {
          "internalType": "bytes32",
          "name": "txHash",
          "type": "bytes32"
        },
        {
          "internalType": "uint256",
          "name": "dateCreated",
          "type": "uint256"
        }
      ],
      "stateMutability": "view",
      "type": "function"
    },
    {
      "inputs": [
        {
          "internalType": "uint256",
          "name": "_index",
          "type": "uint256"
        },
        {
          "internalType": "address",
          "name": "_patientAddress",
          "type": "address"
        }
      ],
      "name": "getPatientReport",
      "outputs": [
        {
          "internalType": "address",
          "name": "patientWalletAddress",
          "type": "address"
        },
        {
          "internalType": "string[]",
          "name": "testResult",
          "type": "string[]"
        },
        {
          "internalType": "bytes32",
          "name": "_txHash",
          "type": "bytes32"
        },
        {
          "internalType": "uint256",
          "name": "_dateCreated",
          "type": "uint256"
        }
      ],
      "stateMutability": "view",
      "type": "function"
    },
    {
      "inputs": [],
      "name": "getPatientTestResults",
      "outputs": [
        {
          "components": [
            {
              "internalType": "address",
              "name": "patientWalletAddress",
              "type": "address"
            },
            {
              "internalType": "string",
              "name": "testResult",
              "type": "string"
            },
            {
              "internalType": "bytes32",
              "name": "txHash",
              "type": "bytes32"
            },
            {
              "internalType": "uint256",
              "name": "dateCreated",
              "type": "uint256"
            }
          ],
          "internalType": "struct MedicalRecord.PatientMedicalReport[]",
          "name": "",
          "type": "tuple[]"
        }
      ],
      "stateMutability": "view",
      "type": "function"
    },
    {
      "inputs": [
        {
          "internalType": "address",
          "name": "",
          "type": "address"
        }
      ],
      "name": "isExist",
      "outputs": [
        {
          "internalType": "bool",
          "name": "",
          "type": "bool"
        }
      ],
      "stateMutability": "view",
      "type": "function"
    },
    {
      "inputs": [],
      "name": "owner",
      "outputs": [
        {
          "internalType": "address",
          "name": "",
          "type": "address"
        }
      ],
      "stateMutability": "view",
      "type": "function"
    },
    {
      "inputs": [],
      "name": "patientCount",
      "outputs": [
        {
          "internalType": "uint256",
          "name": "",
          "type": "uint256"
        }
      ],
      "stateMutability": "view",
      "type": "function"
    },
    {
      "inputs": [],
      "name": "patientId",
      "outputs": [
        {
          "internalType": "uint256",
          "name": "_value",
          "type": "uint256"
        }
      ],
      "stateMutability": "view",
      "type": "function"
    },
    {
      "inputs": [
        {
          "internalType": "uint256",
          "name": "",
          "type": "uint256"
        }
      ],
      "name": "patientReports",
      "outputs": [
        {
          "internalType": "address",
          "name": "patientWalletAddress",
          "type": "address"
        },
        {
          "internalType": "string",
          "name": "testResult",
          "type": "string"
        },
        {
          "internalType": "bytes32",
          "name": "txHash",
          "type": "bytes32"
        },
        {
          "internalType": "uint256",
          "name": "dateCreated",
          "type": "uint256"
        }
      ],
      "stateMutability": "view",
      "type": "function"
    },
    {
      "inputs": [
        {
          "internalType": "uint256",
          "name": "",
          "type": "uint256"
        }
      ],
      "name": "patients",
      "outputs": [
        {
          "internalType": "uint256",
          "name": "id",
          "type": "uint256"
        },
        {
          "internalType": "address",
          "name": "patientWalletAddress",
          "type": "address"
        },
        {
          "internalType": "string",
          "name": "patientIPFSHash",
          "type": "string"
        },
        {
          "internalType": "bytes32",
          "name": "txHash",
          "type": "bytes32"
        },
        {
          "internalType": "uint256",
          "name": "dateCreated",
          "type": "uint256"
        }
      ],
      "stateMutability": "view",
      "type": "function"
    }
  ],
  "bytecode": "0x608060405234801561001057600080fd5b5033600460006101000a81548173ffffffffffffffffffffffffffffffffffffffff021916908373ffffffffffffffffffffffffffffffffffffffff16021790555061268e806100616000396000f3fe608060405234801561001057600080fd5b50600436106100ce5760003560e01c80636df0b3a21161008c578063a0303c4111610066578063a0303c4114610231578063ba3127ec1461024f578063db66c06014610282578063e07f44441461029e576100ce565b80636df0b3a2146101ac5780638da5cb5b146101df57806393119a83146101fd576100ce565b806213eb4b146100d3578063047e6ea71461010357806308ca42d714610121578063435d79351461015657806343e08ad1146101745780635418754214610190575b600080fd5b6100ed60048036038101906100e89190611728565b6102bc565b6040516100fa9190611770565b60405180910390f35b61010b6102dc565b6040516101189190611a70565b60405180910390f35b61013b60048036038101906101369190611abe565b6105aa565b60405161014d96959493929190611bfb565b60405180910390f35b61015e6108f2565b60405161016b9190611d8f565b60405180910390f35b61018e60048036038101906101899190611ddd565b610add565b005b6101aa60048036038101906101a59190611f3f565b610b74565b005b6101c660048036038101906101c19190611f9b565b610e62565b6040516101d69493929190611fc8565b60405180910390f35b6101e7610f4a565b6040516101f49190612014565b60405180910390f35b61021760048036038101906102129190611f9b565b610f70565b60405161022895949392919061202f565b60405180910390f35b61023961105e565b6040516102469190612089565b60405180910390f35b61026960048036038101906102649190611abe565b611064565b60405161027994939291906120a4565b60405180910390f35b61029c60048036038101906102979190611f3f565b6112ce565b005b6102a66115ac565b6040516102b39190612089565b60405180910390f35b60056020528060005260406000206000915054906101000a900460ff1681565b6060600460009054906101000a900473ffffffffffffffffffffffffffffffffffffffff1673ffffffffffffffffffffffffffffffffffffffff163373ffffffffffffffffffffffffffffffffffffffff161461036e576040517f08c379a00000000000000000000000000000000000000000000000000000000081526004016103659061213c565b60405180910390fd5b6002805480602002602001604051908101604052809291908181526020016000905b828210156105a157838290600052602060002090600602016040518060c0016040529081600082015481526020016001820160009054906101000a900473ffffffffffffffffffffffffffffffffffffffff1673ffffffffffffffffffffffffffffffffffffffff1673ffffffffffffffffffffffffffffffffffffffff1681526020016002820180546104239061218b565b80601f016020809104026020016040519081016040528092919081815260200182805461044f9061218b565b801561049c5780601f106104715761010080835404028352916020019161049c565b820191906000526020600020905b81548152906001019060200180831161047f57829003601f168201915b5050505050815260200160038201805480602002602001604051908101604052809291908181526020016000905b828210156105765783829060005260206000200180546104e99061218b565b80601f01602080910402602001604051908101604052809291908181526020018280546105159061218b565b80156105625780601f1061053757610100808354040283529160200191610562565b820191906000526020600020905b81548152906001019060200180831161054557829003601f168201915b5050505050815260200190600101906104ca565b5050505081526020016004820154815260200160058201548152505081526020019060010190610390565b50505050905090565b60008060608060008086600460009054906101000a900473ffffffffffffffffffffffffffffffffffffffff1673ffffffffffffffffffffffffffffffffffffffff163373ffffffffffffffffffffffffffffffffffffffff16148061063b57508073ffffffffffffffffffffffffffffffffffffffff163373ffffffffffffffffffffffffffffffffffffffff16145b61067a576040517f08c379a00000000000000000000000000000000000000000000000000000000081526004016106719061213c565b60405180910390fd5b6002898154811061068e5761068d6121bc565b5b90600052602060002090600602016000015460028a815481106106b4576106b36121bc565b5b906000526020600020906006020160010160009054906101000a900473ffffffffffffffffffffffffffffffffffffffff1660028b815481106106fa576106f96121bc565b5b906000526020600020906006020160020160028c8154811061071f5761071e6121bc565b5b906000526020600020906006020160030160028d81548110610744576107436121bc565b5b90600052602060002090600602016004015460028e8154811061076a576107696121bc565b5b9060005260206000209060060201600501548380546107889061218b565b80601f01602080910402602001604051908101604052809291908181526020018280546107b49061218b565b80156108015780601f106107d657610100808354040283529160200191610801565b820191906000526020600020905b8154815290600101906020018083116107e457829003601f168201915b5050505050935082805480602002602001604051908101604052809291908181526020016000905b828210156108d55783829060005260206000200180546108489061218b565b80601f01602080910402602001604051908101604052809291908181526020018280546108749061218b565b80156108c15780601f10610896576101008083540402835291602001916108c1565b820191906000526020600020905b8154815290600101906020018083116108a457829003601f168201915b505050505081526020019060010190610829565b505050509250965096509650965096509650509295509295509295565b6060600460009054906101000a900473ffffffffffffffffffffffffffffffffffffffff1673ffffffffffffffffffffffffffffffffffffffff163373ffffffffffffffffffffffffffffffffffffffff1614610984576040517f08c379a000000000000000000000000000000000000000000000000000000000815260040161097b9061213c565b60405180910390fd5b6003805480602002602001604051908101604052809291908181526020016000905b82821015610ad457838290600052602060002090600402016040518060800160405290816000820160009054906101000a900473ffffffffffffffffffffffffffffffffffffffff1673ffffffffffffffffffffffffffffffffffffffff1673ffffffffffffffffffffffffffffffffffffffff168152602001600182018054610a2f9061218b565b80601f0160208091040260200160405190810160405280929190818152602001828054610a5b9061218b565b8015610aa85780601f10610a7d57610100808354040283529160200191610aa8565b820191906000526020600020905b815481529060010190602001808311610a8b57829003601f168201915b5050505050815260200160028201548152602001600382015481525050815260200190600101906109a6565b50505050905090565b6000600190506000610aef60006115b8565b905060008111610b34576040517f08c379a0000000000000000000000000000000000000000000000000000000008152600401610b2b90612237565b60405180910390fd5b600060028383610b449190612286565b81548110610b5557610b546121bc565b5b9060005260206000209060060201905083816004018190555050505050565b600460009054906101000a900473ffffffffffffffffffffffffffffffffffffffff1673ffffffffffffffffffffffffffffffffffffffff163373ffffffffffffffffffffffffffffffffffffffff1614610c04576040517f08c379a0000000000000000000000000000000000000000000000000000000008152600401610bfb9061213c565b60405180910390fd5b60008043409050600042905060005b600280549050811015610d45578573ffffffffffffffffffffffffffffffffffffffff1660028281548110610c4b57610c4a6121bc565b5b906000526020600020906006020160010160009054906101000a900473ffffffffffffffffffffffffffffffffffffffff1673ffffffffffffffffffffffffffffffffffffffff1603610d32576001935060028181548110610cb057610caf6121bc565b5b906000526020600020906006020160030185908060018154018082558091505060019003906000526020600020016000909190919091509081610cf39190612466565b507fd5e1dc8c146b8b7ee8f95f643bd435a54b0b6dfa4379b07c20f8a5f293a29b7c86868585604051610d299493929190611fc8565b60405180910390a15b8080610d3d90612538565b915050610c13565b5082610d86576040517f08c379a0000000000000000000000000000000000000000000000000000000008152600401610d7d906125cc565b60405180910390fd5b600360405180608001604052808773ffffffffffffffffffffffffffffffffffffffff16815260200186815260200184815260200183815250908060018154018082558091505060019003906000526020600020906004020160009091909190915060008201518160000160006101000a81548173ffffffffffffffffffffffffffffffffffffffff021916908373ffffffffffffffffffffffffffffffffffffffff1602179055506020820151816001019081610e449190612466565b50604082015181600201556060820151816003015550505050505050565b60038181548110610e7257600080fd5b90600052602060002090600402016000915090508060000160009054906101000a900473ffffffffffffffffffffffffffffffffffffffff1690806001018054610ebb9061218b565b80601f0160208091040260200160405190810160405280929190818152602001828054610ee79061218b565b8015610f345780601f10610f0957610100808354040283529160200191610f34565b820191906000526020600020905b815481529060010190602001808311610f1757829003601f168201915b5050505050908060020154908060030154905084565b600460009054906101000a900473ffffffffffffffffffffffffffffffffffffffff1681565b60028181548110610f8057600080fd5b90600052602060002090600602016000915090508060000154908060010160009054906101000a900473ffffffffffffffffffffffffffffffffffffffff1690806002018054610fcf9061218b565b80601f0160208091040260200160405190810160405280929190818152602001828054610ffb9061218b565b80156110485780601f1061101d57610100808354040283529160200191611048565b820191906000526020600020905b81548152906001019060200180831161102b57829003601f168201915b5050505050908060040154908060050154905085565b60015481565b6000606060008084600460009054906101000a900473ffffffffffffffffffffffffffffffffffffffff1673ffffffffffffffffffffffffffffffffffffffff163373ffffffffffffffffffffffffffffffffffffffff1614806110f357508073ffffffffffffffffffffffffffffffffffffffff163373ffffffffffffffffffffffffffffffffffffffff16145b611132576040517f08c379a00000000000000000000000000000000000000000000000000000000081526004016111299061213c565b60405180910390fd5b60038781548110611146576111456121bc565b5b906000526020600020906004020160000160009054906101000a900473ffffffffffffffffffffffffffffffffffffffff166002888154811061118c5761118b6121bc565b5b9060005260206000209060060201600301600389815481106111b1576111b06121bc565b5b90600052602060002090600402016002015460038a815481106111d7576111d66121bc565b5b90600052602060002090600402016003015482805480602002602001604051908101604052809291908181526020016000905b828210156112b65783829060005260206000200180546112299061218b565b80601f01602080910402602001604051908101604052809291908181526020018280546112559061218b565b80156112a25780601f10611277576101008083540402835291602001916112a2565b820191906000526020600020905b81548152906001019060200180831161128557829003601f168201915b50505050508152602001906001019061120a565b50505050925094509450945094505092959194509250565b600460009054906101000a900473ffffffffffffffffffffffffffffffffffffffff1673ffffffffffffffffffffffffffffffffffffffff163373ffffffffffffffffffffffffffffffffffffffff161461135e576040517f08c379a00000000000000000000000000000000000000000000000000000000081526004016113559061213c565b60405180910390fd5b600560008373ffffffffffffffffffffffffffffffffffffffff1673ffffffffffffffffffffffffffffffffffffffff16815260200190815260200160002060009054906101000a900460ff16156113eb576040517f08c379a00000000000000000000000000000000000000000000000000000000081526004016113e290612638565b60405180910390fd5b60006113f760006115b8565b90506060600043409050600042905060026040518060c001604052808681526020018873ffffffffffffffffffffffffffffffffffffffff1681526020018781526020018581526020018481526020018381525090806001815401808255809150506001900390600052602060002090600602016000909190919091506000820151816000015560208201518160010160006101000a81548173ffffffffffffffffffffffffffffffffffffffff021916908373ffffffffffffffffffffffffffffffffffffffff16021790555060408201518160020190816114da9190612466565b5060608201518160030190805190602001906114f79291906115dc565b506080820151816004015560a08201518160050155505061151860006115c6565b600560008773ffffffffffffffffffffffffffffffffffffffff1673ffffffffffffffffffffffffffffffffffffffff16815260200190815260200160002060009054906101000a9050507f2e42963c20afb77b4cb52cc774c84b1a34230ade33265552016c8e8453ed48086001548787858560405161159c95949392919061202f565b60405180910390a1505050505050565b60008060000154905081565b600081600001549050919050565b6001816000016000828254019250508190555050565b828054828255906000526020600020908101928215611624579160200282015b828111156116235782518290816116139190612466565b50916020019190600101906115fc565b5b5090506116319190611635565b5090565b5b80821115611655576000818161164c9190611659565b50600101611636565b5090565b5080546116659061218b565b6000825580601f106116775750611696565b601f0160209004906000526020600020908101906116959190611699565b5b50565b5b808211156116b257600081600090555060010161169a565b5090565b6000604051905090565b600080fd5b600080fd5b600073ffffffffffffffffffffffffffffffffffffffff82169050919050565b60006116f5826116ca565b9050919050565b611705816116ea565b811461171057600080fd5b50565b600081359050611722816116fc565b92915050565b60006020828403121561173e5761173d6116c0565b5b600061174c84828501611713565b91505092915050565b60008115159050919050565b61176a81611755565b82525050565b60006020820190506117856000830184611761565b92915050565b600081519050919050565b600082825260208201905092915050565b6000819050602082019050919050565b6000819050919050565b6117ca816117b7565b82525050565b6117d9816116ea565b82525050565b600081519050919050565b600082825260208201905092915050565b60005b838110156118195780820151818401526020810190506117fe565b60008484015250505050565b6000601f19601f8301169050919050565b6000611841826117df565b61184b81856117ea565b935061185b8185602086016117fb565b61186481611825565b840191505092915050565b600081519050919050565b600082825260208201905092915050565b6000819050602082019050919050565b60006118a78383611836565b905092915050565b6000602082019050919050565b60006118c78261186f565b6118d1818561187a565b9350836020820285016118e38561188b565b8060005b8581101561191f5784840389528151611900858261189b565b945061190b836118af565b925060208a019950506001810190506118e7565b50829750879550505050505092915050565b6000819050919050565b61194481611931565b82525050565b600060c08301600083015161196260008601826117c1565b50602083015161197560208601826117d0565b506040830151848203604086015261198d8282611836565b915050606083015184820360608601526119a782826118bc565b91505060808301516119bc608086018261193b565b5060a08301516119cf60a08601826117c1565b508091505092915050565b60006119e6838361194a565b905092915050565b6000602082019050919050565b6000611a068261178b565b611a108185611796565b935083602082028501611a22856117a7565b8060005b85811015611a5e5784840389528151611a3f85826119da565b9450611a4a836119ee565b925060208a01995050600181019050611a26565b50829750879550505050505092915050565b60006020820190508181036000830152611a8a81846119fb565b905092915050565b611a9b816117b7565b8114611aa657600080fd5b50565b600081359050611ab881611a92565b92915050565b60008060408385031215611ad557611ad46116c0565b5b6000611ae385828601611aa9565b9250506020611af485828601611713565b9150509250929050565b611b07816117b7565b82525050565b611b16816116ea565b82525050565b600082825260208201905092915050565b6000611b38826117df565b611b428185611b1c565b9350611b528185602086016117fb565b611b5b81611825565b840191505092915050565b600082825260208201905092915050565b6000611b828261186f565b611b8c8185611b66565b935083602082028501611b9e8561188b565b8060005b85811015611bda5784840389528151611bbb858261189b565b9450611bc6836118af565b925060208a01995050600181019050611ba2565b50829750879550505050505092915050565b611bf581611931565b82525050565b600060c082019050611c106000830189611afe565b611c1d6020830188611b0d565b8181036040830152611c2f8187611b2d565b90508181036060830152611c438186611b77565b9050611c526080830185611bec565b611c5f60a0830184611afe565b979650505050505050565b600081519050919050565b600082825260208201905092915050565b6000819050602082019050919050565b6000608083016000830151611cae60008601826117d0565b5060208301518482036020860152611cc68282611836565b9150506040830151611cdb604086018261193b565b506060830151611cee60608601826117c1565b508091505092915050565b6000611d058383611c96565b905092915050565b6000602082019050919050565b6000611d2582611c6a565b611d2f8185611c75565b935083602082028501611d4185611c86565b8060005b85811015611d7d5784840389528151611d5e8582611cf9565b9450611d6983611d0d565b925060208a01995050600181019050611d45565b50829750879550505050505092915050565b60006020820190508181036000830152611da98184611d1a565b905092915050565b611dba81611931565b8114611dc557600080fd5b50565b600081359050611dd781611db1565b92915050565b600060208284031215611df357611df26116c0565b5b6000611e0184828501611dc8565b91505092915050565b600080fd5b600080fd5b7f4e487b7100000000000000000000000000000000000000000000000000000000600052604160045260246000fd5b611e4c82611825565b810181811067ffffffffffffffff82111715611e6b57611e6a611e14565b5b80604052505050565b6000611e7e6116b6565b9050611e8a8282611e43565b919050565b600067ffffffffffffffff821115611eaa57611ea9611e14565b5b611eb382611825565b9050602081019050919050565b82818337600083830152505050565b6000611ee2611edd84611e8f565b611e74565b905082815260208101848484011115611efe57611efd611e0f565b5b611f09848285611ec0565b509392505050565b600082601f830112611f2657611f25611e0a565b5b8135611f36848260208601611ecf565b91505092915050565b60008060408385031215611f5657611f556116c0565b5b6000611f6485828601611713565b925050602083013567ffffffffffffffff811115611f8557611f846116c5565b5b611f9185828601611f11565b9150509250929050565b600060208284031215611fb157611fb06116c0565b5b6000611fbf84828501611aa9565b91505092915050565b6000608082019050611fdd6000830187611b0d565b8181036020830152611fef8186611b2d565b9050611ffe6040830185611bec565b61200b6060830184611afe565b95945050505050565b60006020820190506120296000830184611b0d565b92915050565b600060a0820190506120446000830188611afe565b6120516020830187611b0d565b81810360408301526120638186611b2d565b90506120726060830185611bec565b61207f6080830184611afe565b9695505050505050565b600060208201905061209e6000830184611afe565b92915050565b60006080820190506120b96000830187611b0d565b81810360208301526120cb8186611b77565b90506120da6040830185611bec565b6120e76060830184611afe565b95945050505050565b7f596f7520617265206e6f7420746865206f776e65720000000000000000000000600082015250565b6000612126601583611b1c565b9150612131826120f0565b602082019050919050565b6000602082019050818103600083015261215581612119565b9050919050565b7f4e487b7100000000000000000000000000000000000000000000000000000000600052602260045260246000fd5b600060028204905060018216806121a357607f821691505b6020821081036121b6576121b561215c565b5b50919050565b7f4e487b7100000000000000000000000000000000000000000000000000000000600052603260045260246000fd5b7f4e6f2070726576696f7573207472616e73616374696f6e206578697374730000600082015250565b6000612221601e83611b1c565b915061222c826121eb565b602082019050919050565b6000602082019050818103600083015261225081612214565b9050919050565b7f4e487b7100000000000000000000000000000000000000000000000000000000600052601160045260246000fd5b6000612291826117b7565b915061229c836117b7565b92508282039050818111156122b4576122b3612257565b5b92915050565b60008190508160005260206000209050919050565b60006020601f8301049050919050565b600082821b905092915050565b60006008830261231c7fffffffffffffffffffffffffffffffffffffffffffffffffffffffffffffffff826122df565b61232686836122df565b95508019841693508086168417925050509392505050565b6000819050919050565b600061236361235e612359846117b7565b61233e565b6117b7565b9050919050565b6000819050919050565b61237d83612348565b6123916123898261236a565b8484546122ec565b825550505050565b600090565b6123a6612399565b6123b1818484612374565b505050565b5b818110156123d5576123ca60008261239e565b6001810190506123b7565b5050565b601f82111561241a576123eb816122ba565b6123f4846122cf565b81016020851015612403578190505b61241761240f856122cf565b8301826123b6565b50505b505050565b600082821c905092915050565b600061243d6000198460080261241f565b1980831691505092915050565b6000612456838361242c565b9150826002028217905092915050565b61246f826117df565b67ffffffffffffffff81111561248857612487611e14565b5b612492825461218b565b61249d8282856123d9565b600060209050601f8311600181146124d057600084156124be578287015190505b6124c8858261244a565b865550612530565b601f1984166124de866122ba565b60005b82811015612506578489015182556001820191506020850194506020810190506124e1565b86831015612523578489015161251f601f89168261242c565b8355505b6001600288020188555050505b505050505050565b6000612543826117b7565b91507fffffffffffffffffffffffffffffffffffffffffffffffffffffffffffffffff820361257557612574612257565b5b600182019050919050565b7f50617469656e74207265636f726420646f6573206e6f74206578697374000000600082015250565b60006125b6601d83611b1c565b91506125c182612580565b602082019050919050565b600060208201905081810360008301526125e5816125a9565b9050919050565b7f50617469656e74207265636f726420616c726561647920657869737400000000600082015250565b6000612622601c83611b1c565b915061262d826125ec565b602082019050919050565b6000602082019050818103600083015261265181612615565b905091905056fea264697066735822122099b86f3584274fb9e4415d3c7e5e448d65214546171713289b35e101d20ae70964736f6c63430008110033",
  "linkReferences": {},
  "deployedLinkReferences": {}
}