{
  "_format": "hh-sol-artifact-1",
  "contractName": "MedicalRecord",
  "sourceName": "contracts/MedicalRecord.sol",
  "abi": [
    {
      "inputs": [],
      "stateMutability": "nonpayable",
      "type": "constructor"
    },
    {
      "anonymous": false,
      "inputs": [
        {
          "indexed": false,
          "internalType": "uint256",
          "name": "id",
          "type": "uint256"
        },
        {
          "indexed": false,
          "internalType": "address",
          "name": "patientWalletAddress",
          "type": "address"
        },
        {
          "indexed": false,
          "internalType": "string",
          "name": "patientIPFSHash",
          "type": "string"
        },
        {
          "indexed": false,
          "internalType": "bytes32",
          "name": "txHash",
          "type": "bytes32"
        },
        {
          "indexed": false,
          "internalType": "uint256",
          "name": "dateCreated",
          "type": "uint256"
        }
      ],
      "name": "LogPatientData",
      "type": "event"
    },
    {
      "anonymous": false,
      "inputs": [
        {
          "indexed": false,
          "internalType": "address",
          "name": "patientWalletAddress",
          "type": "address"
        },
        {
          "indexed": false,
          "internalType": "string",
          "name": "testResult",
          "type": "string"
        },
        {
          "indexed": false,
          "internalType": "bytes32",
          "name": "txHash",
          "type": "bytes32"
        },
        {
          "indexed": false,
          "internalType": "uint256",
          "name": "dateCreated",
          "type": "uint256"
        }
      ],
      "name": "LogPatientMedicalReport",
      "type": "event"
    },
    {
      "inputs": [
        {
          "internalType": "bytes32",
          "name": "hash",
          "type": "bytes32"
        }
      ],
      "name": "addHash",
      "outputs": [],
      "stateMutability": "nonpayable",
      "type": "function"
    },
    {
      "inputs": [
        {
          "internalType": "address",
          "name": "_patientWalletAddress",
          "type": "address"
        },
        {
          "internalType": "string",
          "name": "_patientIPFSHash",
          "type": "string"
        }
      ],
      "name": "addPatient",
      "outputs": [],
      "stateMutability": "nonpayable",
      "type": "function"
    },
    {
      "inputs": [
        {
          "internalType": "address",
          "name": "_address",
          "type": "address"
        },
        {
          "internalType": "string",
          "name": "testResult",
          "type": "string"
        }
      ],
      "name": "addPatientMedicalReport",
      "outputs": [],
      "stateMutability": "nonpayable",
      "type": "function"
    },
    {
      "inputs": [],
      "name": "getAllpatients",
      "outputs": [
        {
          "components": [
            {
              "internalType": "uint256",
              "name": "id",
              "type": "uint256"
            },
            {
              "internalType": "address",
              "name": "patientWalletAddress",
              "type": "address"
            },
            {
              "internalType": "string",
              "name": "patientIPFSHash",
              "type": "string"
            },
            {
              "internalType": "string",
              "name": "reports",
              "type": "string"
            },
            {
              "internalType": "bytes32",
              "name": "txHash",
              "type": "bytes32"
            },
            {
              "internalType": "uint256",
              "name": "dateCreated",
              "type": "uint256"
            }
          ],
          "internalType": "struct MedicalRecord.PatientData[]",
          "name": "",
          "type": "tuple[]"
        }
      ],
      "stateMutability": "view",
      "type": "function"
    },
    {
      "inputs": [
        {
          "internalType": "address",
          "name": "_patientAddress",
          "type": "address"
        }
      ],
      "name": "getPatientData",
      "outputs": [
        {
          "internalType": "uint256",
          "name": "id",
          "type": "uint256"
        },
        {
          "internalType": "address",
          "name": "patientWalletAddress",
          "type": "address"
        },
        {
          "internalType": "string",
          "name": "patientIPFSHash",
          "type": "string"
        },
        {
          "internalType": "string",
          "name": "testResult",
          "type": "string"
        },
        {
          "internalType": "bytes32",
          "name": "txHash",
          "type": "bytes32"
        },
        {
          "internalType": "uint256",
          "name": "dateCreated",
          "type": "uint256"
        }
      ],
      "stateMutability": "view",
      "type": "function"
    },
    {
      "inputs": [
        {
          "internalType": "address",
          "name": "_patientAddress",
          "type": "address"
        }
      ],
      "name": "getPatientReport",
      "outputs": [
        {
          "internalType": "address",
          "name": "patientWalletAddress",
          "type": "address"
        },
        {
          "internalType": "string",
          "name": "testResult",
          "type": "string"
        },
        {
          "internalType": "bytes32",
          "name": "_txHash",
          "type": "bytes32"
        },
        {
          "internalType": "uint256",
          "name": "_dateCreated",
          "type": "uint256"
        }
      ],
      "stateMutability": "view",
      "type": "function"
    },
    {
      "inputs": [],
      "name": "getPatientTestResults",
      "outputs": [
        {
          "components": [
            {
              "internalType": "uint256",
              "name": "id",
              "type": "uint256"
            },
            {
              "internalType": "address",
              "name": "patientWalletAddress",
              "type": "address"
            },
            {
              "internalType": "string",
              "name": "testResult",
              "type": "string"
            },
            {
              "internalType": "bytes32",
              "name": "txHash",
              "type": "bytes32"
            },
            {
              "internalType": "uint256",
              "name": "dateCreated",
              "type": "uint256"
            }
          ],
          "internalType": "struct MedicalRecord.PatientMedicalReport[]",
          "name": "",
          "type": "tuple[]"
        }
      ],
      "stateMutability": "view",
      "type": "function"
    },
    {
      "inputs": [
        {
          "internalType": "address",
          "name": "",
          "type": "address"
        }
      ],
      "name": "isExist",
      "outputs": [
        {
          "internalType": "bool",
          "name": "",
          "type": "bool"
        }
      ],
      "stateMutability": "view",
      "type": "function"
    },
    {
      "inputs": [],
      "name": "owner",
      "outputs": [
        {
          "internalType": "address",
          "name": "",
          "type": "address"
        }
      ],
      "stateMutability": "view",
      "type": "function"
    },
    {
      "inputs": [],
      "name": "patientCount",
      "outputs": [
        {
          "internalType": "uint256",
          "name": "",
          "type": "uint256"
        }
      ],
      "stateMutability": "view",
      "type": "function"
    },
    {
      "inputs": [
        {
          "internalType": "uint256",
          "name": "",
          "type": "uint256"
        }
      ],
      "name": "patientReports",
      "outputs": [
        {
          "internalType": "uint256",
          "name": "id",
          "type": "uint256"
        },
        {
          "internalType": "address",
          "name": "patientWalletAddress",
          "type": "address"
        },
        {
          "internalType": "string",
          "name": "testResult",
          "type": "string"
        },
        {
          "internalType": "bytes32",
          "name": "txHash",
          "type": "bytes32"
        },
        {
          "internalType": "uint256",
          "name": "dateCreated",
          "type": "uint256"
        }
      ],
      "stateMutability": "view",
      "type": "function"
    },
    {
      "inputs": [
        {
          "internalType": "uint256",
          "name": "",
          "type": "uint256"
        }
      ],
      "name": "patients",
      "outputs": [
        {
          "internalType": "uint256",
          "name": "id",
          "type": "uint256"
        },
        {
          "internalType": "address",
          "name": "patientWalletAddress",
          "type": "address"
        },
        {
          "internalType": "string",
          "name": "patientIPFSHash",
          "type": "string"
        },
        {
          "internalType": "string",
          "name": "reports",
          "type": "string"
        },
        {
          "internalType": "bytes32",
          "name": "txHash",
          "type": "bytes32"
        },
        {
          "internalType": "uint256",
          "name": "dateCreated",
          "type": "uint256"
        }
      ],
      "stateMutability": "view",
      "type": "function"
    },
    {
      "inputs": [],
      "name": "reportCount",
      "outputs": [
        {
          "internalType": "uint256",
          "name": "",
          "type": "uint256"
        }
      ],
      "stateMutability": "view",
      "type": "function"
    }
  ],
  "bytecode": "0x608060405234801561001057600080fd5b5033600460006101000a81548173ffffffffffffffffffffffffffffffffffffffff021916908373ffffffffffffffffffffffffffffffffffffffff1602179055506121fb806100616000396000f3fe608060405234801561001057600080fd5b50600436106100ce5760003560e01c806348e818521161008c5780638da5cb5b116100665780638da5cb5b1461023157806393119a831461024f578063a0303c4114610284578063db66c060146102a2576100ce565b806348e81852146101ac57806354187542146101e15780636df0b3a2146101fd576100ce565b806213eb4b146100d35780630311ed9d14610103578063047e6ea714610136578063185c6f8414610154578063435d79351461017257806343e08ad114610190575b600080fd5b6100ed60048036038101906100e89190611456565b6102be565b6040516100fa919061149e565b60405180910390f35b61011d60048036038101906101189190611456565b6102de565b60405161012d949392919061158a565b60405180910390f35b61013e610573565b60405161014b919061179f565b60405180910390f35b61015c61076a565b60405161016991906117c1565b60405180910390f35b61017a610770565b6040516101879190611914565b60405180910390f35b6101aa60048036038101906101a59190611962565b6108d5565b005b6101c660048036038101906101c19190611456565b610960565b6040516101d89695949392919061198f565b60405180910390f35b6101fb60048036038101906101f69190611b33565b610d0e565b005b61021760048036038101906102129190611bbb565b610d68565b604051610228959493929190611be8565b60405180910390f35b610239610e56565b6040516102469190611c42565b60405180910390f35b61026960048036038101906102649190611bbb565b610e7c565b60405161027b9695949392919061198f565b60405180910390f35b61028c610ff8565b60405161029991906117c1565b60405180910390f35b6102bc60048036038101906102b79190611b33565b610ffe565b005b60076020528060005260406000206000915054906101000a900460ff1681565b6000606060008084600460009054906101000a900473ffffffffffffffffffffffffffffffffffffffff1673ffffffffffffffffffffffffffffffffffffffff163373ffffffffffffffffffffffffffffffffffffffff16148061036d57508073ffffffffffffffffffffffffffffffffffffffff163373ffffffffffffffffffffffffffffffffffffffff16145b6103ac576040517f08c379a00000000000000000000000000000000000000000000000000000000081526004016103a390611ca9565b60405180910390fd5b600660008773ffffffffffffffffffffffffffffffffffffffff1673ffffffffffffffffffffffffffffffffffffffff16815260200190815260200160002060010160009054906101000a900473ffffffffffffffffffffffffffffffffffffffff16600560008873ffffffffffffffffffffffffffffffffffffffff1673ffffffffffffffffffffffffffffffffffffffff168152602001908152602001600020600301600660008973ffffffffffffffffffffffffffffffffffffffff1673ffffffffffffffffffffffffffffffffffffffff16815260200190815260200160002060030154600660008a73ffffffffffffffffffffffffffffffffffffffff1673ffffffffffffffffffffffffffffffffffffffff168152602001908152602001600020600401548280546104e390611cf8565b80601f016020809104026020016040519081016040528092919081815260200182805461050f90611cf8565b801561055c5780601f106105315761010080835404028352916020019161055c565b820191906000526020600020905b81548152906001019060200180831161053f57829003601f168201915b505050505092509450945094509450509193509193565b60606002805480602002602001604051908101604052809291908181526020016000905b8282101561076157838290600052602060002090600602016040518060c0016040529081600082015481526020016001820160009054906101000a900473ffffffffffffffffffffffffffffffffffffffff1673ffffffffffffffffffffffffffffffffffffffff1673ffffffffffffffffffffffffffffffffffffffff16815260200160028201805461062a90611cf8565b80601f016020809104026020016040519081016040528092919081815260200182805461065690611cf8565b80156106a35780601f10610678576101008083540402835291602001916106a3565b820191906000526020600020905b81548152906001019060200180831161068657829003601f168201915b505050505081526020016003820180546106bc90611cf8565b80601f01602080910402602001604051908101604052809291908181526020018280546106e890611cf8565b80156107355780601f1061070a57610100808354040283529160200191610735565b820191906000526020600020905b81548152906001019060200180831161071857829003601f168201915b505050505081526020016004820154815260200160058201548152505081526020019060010190610597565b50505050905090565b60015481565b60606003805480602002602001604051908101604052809291908181526020016000905b828210156108cc57838290600052602060002090600502016040518060a0016040529081600082015481526020016001820160009054906101000a900473ffffffffffffffffffffffffffffffffffffffff1673ffffffffffffffffffffffffffffffffffffffff1673ffffffffffffffffffffffffffffffffffffffff16815260200160028201805461082790611cf8565b80601f016020809104026020016040519081016040528092919081815260200182805461085390611cf8565b80156108a05780601f10610875576101008083540402835291602001916108a0565b820191906000526020600020905b81548152906001019060200180831161088357829003601f168201915b505050505081526020016003820154815260200160048201548152505081526020019060010190610794565b50505050905090565b600060019050600080541161091f576040517f08c379a000000000000000000000000000000000000000000000000000000000815260040161091690611d75565b60405180910390fd5b60006002826000546109319190611dc4565b8154811061094257610941611df8565b5b90600052602060002090600602019050828160040181905550505050565b60008060608060008086600460009054906101000a900473ffffffffffffffffffffffffffffffffffffffff1673ffffffffffffffffffffffffffffffffffffffff163373ffffffffffffffffffffffffffffffffffffffff1614806109f157508073ffffffffffffffffffffffffffffffffffffffff163373ffffffffffffffffffffffffffffffffffffffff16145b610a30576040517f08c379a0000000000000000000000000000000000000000000000000000000008152600401610a2790611ca9565b60405180910390fd5b600560008973ffffffffffffffffffffffffffffffffffffffff1673ffffffffffffffffffffffffffffffffffffffff16815260200190815260200160002060000154600560008a73ffffffffffffffffffffffffffffffffffffffff1673ffffffffffffffffffffffffffffffffffffffff16815260200190815260200160002060010160009054906101000a900473ffffffffffffffffffffffffffffffffffffffff16600560008b73ffffffffffffffffffffffffffffffffffffffff1673ffffffffffffffffffffffffffffffffffffffff168152602001908152602001600020600201600560008c73ffffffffffffffffffffffffffffffffffffffff1673ffffffffffffffffffffffffffffffffffffffff168152602001908152602001600020600301600560008d73ffffffffffffffffffffffffffffffffffffffff1673ffffffffffffffffffffffffffffffffffffffff16815260200190815260200160002060040154600560008e73ffffffffffffffffffffffffffffffffffffffff1673ffffffffffffffffffffffffffffffffffffffff16815260200190815260200160002060050154838054610bec90611cf8565b80601f0160208091040260200160405190810160405280929190818152602001828054610c1890611cf8565b8015610c655780601f10610c3a57610100808354040283529160200191610c65565b820191906000526020600020905b815481529060010190602001808311610c4857829003601f168201915b50505050509350828054610c7890611cf8565b80601f0160208091040260200160405190810160405280929190818152602001828054610ca490611cf8565b8015610cf15780601f10610cc657610100808354040283529160200191610cf1565b820191906000526020600020905b815481529060010190602001808311610cd457829003601f168201915b505050505092509650965096509650965096505091939550919395565b6000600560008473ffffffffffffffffffffffffffffffffffffffff1673ffffffffffffffffffffffffffffffffffffffff168152602001908152602001600020905081816003019081610d629190611fd3565b50505050565b60038181548110610d7857600080fd5b90600052602060002090600502016000915090508060000154908060010160009054906101000a900473ffffffffffffffffffffffffffffffffffffffff1690806002018054610dc790611cf8565b80601f0160208091040260200160405190810160405280929190818152602001828054610df390611cf8565b8015610e405780601f10610e1557610100808354040283529160200191610e40565b820191906000526020600020905b815481529060010190602001808311610e2357829003601f168201915b5050505050908060030154908060040154905085565b600460009054906101000a900473ffffffffffffffffffffffffffffffffffffffff1681565b60028181548110610e8c57600080fd5b90600052602060002090600602016000915090508060000154908060010160009054906101000a900473ffffffffffffffffffffffffffffffffffffffff1690806002018054610edb90611cf8565b80601f0160208091040260200160405190810160405280929190818152602001828054610f0790611cf8565b8015610f545780601f10610f2957610100808354040283529160200191610f54565b820191906000526020600020905b815481529060010190602001808311610f3757829003601f168201915b505050505090806003018054610f6990611cf8565b80601f0160208091040260200160405190810160405280929190818152602001828054610f9590611cf8565b8015610fe25780601f10610fb757610100808354040283529160200191610fe2565b820191906000526020600020905b815481529060010190602001808311610fc557829003601f168201915b5050505050908060040154908060050154905086565b60005481565b600460009054906101000a900473ffffffffffffffffffffffffffffffffffffffff1673ffffffffffffffffffffffffffffffffffffffff163373ffffffffffffffffffffffffffffffffffffffff161461108e576040517f08c379a000000000000000000000000000000000000000000000000000000000815260040161108590611ca9565b60405180910390fd5b600760008373ffffffffffffffffffffffffffffffffffffffff1673ffffffffffffffffffffffffffffffffffffffff16815260200190815260200160002060009054906101000a900460ff161561111b576040517f08c379a0000000000000000000000000000000000000000000000000000000008152600401611112906120f1565b60405180910390fd5b600081511161115f576040517f08c379a00000000000000000000000000000000000000000000000000000000081526004016111569061215d565b60405180910390fd5b6000600560003373ffffffffffffffffffffffffffffffffffffffff1673ffffffffffffffffffffffffffffffffffffffff168152602001908152602001600020905060606000434090506000429050828460030190816111c09190611fd3565b5043408460040181905550428460050181905550858460010160006101000a81548173ffffffffffffffffffffffffffffffffffffffff021916908373ffffffffffffffffffffffffffffffffffffffff160217905550848460020190816112289190611fd3565b5060026040518060c0016040528060005481526020018873ffffffffffffffffffffffffffffffffffffffff1681526020018781526020018581526020018481526020018381525090806001815401808255809150506001900390600052602060002090600602016000909190919091506000820151816000015560208201518160010160006101000a81548173ffffffffffffffffffffffffffffffffffffffff021916908373ffffffffffffffffffffffffffffffffffffffff16021790555060408201518160020190816112ff9190611fd3565b5060608201518160030190816113159190611fd3565b506080820151816004015560a0820151816005015550506001600760008873ffffffffffffffffffffffffffffffffffffffff1673ffffffffffffffffffffffffffffffffffffffff16815260200190815260200160002060006101000a81548160ff0219169083151502179055506000808154809291906113969061217d565b91905055507f2e42963c20afb77b4cb52cc774c84b1a34230ade33265552016c8e8453ed4808600054878785856040516113d4959493929190611be8565b60405180910390a1505050505050565b6000604051905090565b600080fd5b600080fd5b600073ffffffffffffffffffffffffffffffffffffffff82169050919050565b6000611423826113f8565b9050919050565b61143381611418565b811461143e57600080fd5b50565b6000813590506114508161142a565b92915050565b60006020828403121561146c5761146b6113ee565b5b600061147a84828501611441565b91505092915050565b60008115159050919050565b61149881611483565b82525050565b60006020820190506114b3600083018461148f565b92915050565b6114c281611418565b82525050565b600081519050919050565b600082825260208201905092915050565b60005b838110156115025780820151818401526020810190506114e7565b60008484015250505050565b6000601f19601f8301169050919050565b600061152a826114c8565b61153481856114d3565b93506115448185602086016114e4565b61154d8161150e565b840191505092915050565b6000819050919050565b61156b81611558565b82525050565b6000819050919050565b61158481611571565b82525050565b600060808201905061159f60008301876114b9565b81810360208301526115b1818661151f565b90506115c06040830185611562565b6115cd606083018461157b565b95945050505050565b600081519050919050565b600082825260208201905092915050565b6000819050602082019050919050565b61160b81611571565b82525050565b61161a81611418565b82525050565b600082825260208201905092915050565b600061163c826114c8565b6116468185611620565b93506116568185602086016114e4565b61165f8161150e565b840191505092915050565b61167381611558565b82525050565b600060c0830160008301516116916000860182611602565b5060208301516116a46020860182611611565b50604083015184820360408601526116bc8282611631565b915050606083015184820360608601526116d68282611631565b91505060808301516116eb608086018261166a565b5060a08301516116fe60a0860182611602565b508091505092915050565b60006117158383611679565b905092915050565b6000602082019050919050565b6000611735826115d6565b61173f81856115e1565b935083602082028501611751856115f2565b8060005b8581101561178d578484038952815161176e8582611709565b94506117798361171d565b925060208a01995050600181019050611755565b50829750879550505050505092915050565b600060208201905081810360008301526117b9818461172a565b905092915050565b60006020820190506117d6600083018461157b565b92915050565b600081519050919050565b600082825260208201905092915050565b6000819050602082019050919050565b600060a0830160008301516118206000860182611602565b5060208301516118336020860182611611565b506040830151848203604086015261184b8282611631565b9150506060830151611860606086018261166a565b5060808301516118736080860182611602565b508091505092915050565b600061188a8383611808565b905092915050565b6000602082019050919050565b60006118aa826117dc565b6118b481856117e7565b9350836020820285016118c6856117f8565b8060005b8581101561190257848403895281516118e3858261187e565b94506118ee83611892565b925060208a019950506001810190506118ca565b50829750879550505050505092915050565b6000602082019050818103600083015261192e818461189f565b905092915050565b61193f81611558565b811461194a57600080fd5b50565b60008135905061195c81611936565b92915050565b600060208284031215611978576119776113ee565b5b60006119868482850161194d565b91505092915050565b600060c0820190506119a4600083018961157b565b6119b160208301886114b9565b81810360408301526119c3818761151f565b905081810360608301526119d7818661151f565b90506119e66080830185611562565b6119f360a083018461157b565b979650505050505050565b600080fd5b600080fd5b7f4e487b7100000000000000000000000000000000000000000000000000000000600052604160045260246000fd5b611a408261150e565b810181811067ffffffffffffffff82111715611a5f57611a5e611a08565b5b80604052505050565b6000611a726113e4565b9050611a7e8282611a37565b919050565b600067ffffffffffffffff821115611a9e57611a9d611a08565b5b611aa78261150e565b9050602081019050919050565b82818337600083830152505050565b6000611ad6611ad184611a83565b611a68565b905082815260208101848484011115611af257611af1611a03565b5b611afd848285611ab4565b509392505050565b600082601f830112611b1a57611b196119fe565b5b8135611b2a848260208601611ac3565b91505092915050565b60008060408385031215611b4a57611b496113ee565b5b6000611b5885828601611441565b925050602083013567ffffffffffffffff811115611b7957611b786113f3565b5b611b8585828601611b05565b9150509250929050565b611b9881611571565b8114611ba357600080fd5b50565b600081359050611bb581611b8f565b92915050565b600060208284031215611bd157611bd06113ee565b5b6000611bdf84828501611ba6565b91505092915050565b600060a082019050611bfd600083018861157b565b611c0a60208301876114b9565b8181036040830152611c1c818661151f565b9050611c2b6060830185611562565b611c38608083018461157b565b9695505050505050565b6000602082019050611c5760008301846114b9565b92915050565b7f596f7520617265206e6f7420746865206f776e65720000000000000000000000600082015250565b6000611c936015836114d3565b9150611c9e82611c5d565b602082019050919050565b60006020820190508181036000830152611cc281611c86565b9050919050565b7f4e487b7100000000000000000000000000000000000000000000000000000000600052602260045260246000fd5b60006002820490506001821680611d1057607f821691505b602082108103611d2357611d22611cc9565b5b50919050565b7f4e6f2070726576696f7573207472616e73616374696f6e206578697374730000600082015250565b6000611d5f601e836114d3565b9150611d6a82611d29565b602082019050919050565b60006020820190508181036000830152611d8e81611d52565b9050919050565b7f4e487b7100000000000000000000000000000000000000000000000000000000600052601160045260246000fd5b6000611dcf82611571565b9150611dda83611571565b9250828203905081811115611df257611df1611d95565b5b92915050565b7f4e487b7100000000000000000000000000000000000000000000000000000000600052603260045260246000fd5b60008190508160005260206000209050919050565b60006020601f8301049050919050565b600082821b905092915050565b600060088302611e897fffffffffffffffffffffffffffffffffffffffffffffffffffffffffffffffff82611e4c565b611e938683611e4c565b95508019841693508086168417925050509392505050565b6000819050919050565b6000611ed0611ecb611ec684611571565b611eab565b611571565b9050919050565b6000819050919050565b611eea83611eb5565b611efe611ef682611ed7565b848454611e59565b825550505050565b600090565b611f13611f06565b611f1e818484611ee1565b505050565b5b81811015611f4257611f37600082611f0b565b600181019050611f24565b5050565b601f821115611f8757611f5881611e27565b611f6184611e3c565b81016020851015611f70578190505b611f84611f7c85611e3c565b830182611f23565b50505b505050565b600082821c905092915050565b6000611faa60001984600802611f8c565b1980831691505092915050565b6000611fc38383611f99565b9150826002028217905092915050565b611fdc826114c8565b67ffffffffffffffff811115611ff557611ff4611a08565b5b611fff8254611cf8565b61200a828285611f46565b600060209050601f83116001811461203d576000841561202b578287015190505b6120358582611fb7565b86555061209d565b601f19841661204b86611e27565b60005b828110156120735784890151825560018201915060208501945060208101905061204e565b86831015612090578489015161208c601f891682611f99565b8355505b6001600288020188555050505b505050505050565b7f50617469656e74207265636f726420616c726561647920657869737400000000600082015250565b60006120db601c836114d3565b91506120e6826120a5565b602082019050919050565b6000602082019050818103600083015261210a816120ce565b9050919050565b7f4950465320486173682072657175697265640000000000000000000000000000600082015250565b60006121476012836114d3565b915061215282612111565b602082019050919050565b600060208201905081810360008301526121768161213a565b9050919050565b600061218882611571565b91507fffffffffffffffffffffffffffffffffffffffffffffffffffffffffffffffff82036121ba576121b9611d95565b5b60018201905091905056fea2646970667358221220e0137659683dd0263c9e5f4030da143589b2d8e6bab5402bd77df3da0d0a2ff664736f6c63430008110033",
  "linkReferences": {},
  "deployedLinkReferences": {}
}