{
  "_format": "hh-sol-artifact-1",
  "contractName": "MedicalRecord",
  "sourceName": "contracts/MedicalRecord.sol",
  "abi": [
    {
      "inputs": [],
      "stateMutability": "nonpayable",
      "type": "constructor"
    },
    {
      "anonymous": false,
      "inputs": [
        {
          "indexed": false,
          "internalType": "uint256",
          "name": "id",
          "type": "uint256"
        },
        {
          "indexed": false,
          "internalType": "address",
          "name": "patientWalletAddress",
          "type": "address"
        },
        {
          "indexed": false,
          "internalType": "string",
          "name": "patientIPFSHash",
          "type": "string"
        },
        {
          "indexed": false,
          "internalType": "bytes32",
          "name": "txHash",
          "type": "bytes32"
        },
        {
          "indexed": false,
          "internalType": "uint256",
          "name": "dateCreated",
          "type": "uint256"
        }
      ],
      "name": "LogPatientData",
      "type": "event"
    },
    {
      "anonymous": false,
      "inputs": [
        {
          "indexed": false,
          "internalType": "address",
          "name": "patientWalletAddress",
          "type": "address"
        },
        {
          "indexed": false,
          "internalType": "string",
          "name": "testResult",
          "type": "string"
        },
        {
          "indexed": false,
          "internalType": "bytes32",
          "name": "txHash",
          "type": "bytes32"
        },
        {
          "indexed": false,
          "internalType": "uint256",
          "name": "dateCreated",
          "type": "uint256"
        }
      ],
      "name": "LogPatientMedicalReport",
      "type": "event"
    },
    {
      "inputs": [
        {
          "internalType": "bytes32",
          "name": "hash",
          "type": "bytes32"
        }
      ],
      "name": "addHash",
      "outputs": [],
      "stateMutability": "nonpayable",
      "type": "function"
    },
    {
      "inputs": [
        {
          "internalType": "address",
          "name": "_patientWalletAddress",
          "type": "address"
        },
        {
          "internalType": "string",
          "name": "_patientIPFSHash",
          "type": "string"
        }
      ],
      "name": "addPatient",
      "outputs": [],
      "stateMutability": "nonpayable",
      "type": "function"
    },
    {
      "inputs": [
        {
          "internalType": "uint256",
          "name": "index",
          "type": "uint256"
        },
        {
          "internalType": "address",
          "name": "_address",
          "type": "address"
        },
        {
          "internalType": "string",
          "name": "_testResult",
          "type": "string"
        }
      ],
      "name": "addPatientMedicalReport",
      "outputs": [],
      "stateMutability": "nonpayable",
      "type": "function"
    },
    {
      "inputs": [],
      "name": "getAllpatients",
      "outputs": [
        {
          "components": [
            {
              "internalType": "uint256",
              "name": "id",
              "type": "uint256"
            },
            {
              "internalType": "address",
              "name": "patientWalletAddress",
              "type": "address"
            },
            {
              "internalType": "string",
              "name": "patientIPFSHash",
              "type": "string"
            },
            {
              "internalType": "string[]",
              "name": "reports",
              "type": "string[]"
            },
            {
              "internalType": "bytes32",
              "name": "txHash",
              "type": "bytes32"
            },
            {
              "internalType": "uint256",
              "name": "dateCreated",
              "type": "uint256"
            }
          ],
          "internalType": "struct MedicalRecord.PatientData[]",
          "name": "",
          "type": "tuple[]"
        }
      ],
      "stateMutability": "view",
      "type": "function"
    },
    {
      "inputs": [
        {
          "internalType": "address",
          "name": "_patientAddress",
          "type": "address"
        }
      ],
      "name": "getPatientData",
      "outputs": [
        {
          "internalType": "uint256",
          "name": "id",
          "type": "uint256"
        },
        {
          "internalType": "address",
          "name": "patientWalletAddress",
          "type": "address"
        },
        {
          "internalType": "string",
          "name": "patientIPFSHash",
          "type": "string"
        },
        {
          "internalType": "string[]",
          "name": "testResult",
          "type": "string[]"
        },
        {
          "internalType": "bytes32",
          "name": "txHash",
          "type": "bytes32"
        },
        {
          "internalType": "uint256",
          "name": "dateCreated",
          "type": "uint256"
        }
      ],
      "stateMutability": "view",
      "type": "function"
    },
    {
      "inputs": [
        {
          "internalType": "address",
          "name": "_patientAddress",
          "type": "address"
        }
      ],
      "name": "getPatientReport",
      "outputs": [
        {
          "internalType": "address",
          "name": "patientWalletAddress",
          "type": "address"
        },
        {
          "internalType": "string[]",
          "name": "testResult",
          "type": "string[]"
        },
        {
          "internalType": "bytes32",
          "name": "_txHash",
          "type": "bytes32"
        },
        {
          "internalType": "uint256",
          "name": "_dateCreated",
          "type": "uint256"
        }
      ],
      "stateMutability": "view",
      "type": "function"
    },
    {
      "inputs": [],
      "name": "getPatientTestResults",
      "outputs": [
        {
          "components": [
            {
              "internalType": "uint256",
              "name": "reportId",
              "type": "uint256"
            },
            {
              "internalType": "address",
              "name": "patientWalletAddress",
              "type": "address"
            },
            {
              "internalType": "string",
              "name": "testResult",
              "type": "string"
            },
            {
              "internalType": "bytes32",
              "name": "txHash",
              "type": "bytes32"
            },
            {
              "internalType": "uint256",
              "name": "dateCreated",
              "type": "uint256"
            }
          ],
          "internalType": "struct MedicalRecord.PatientMedicalReport[]",
          "name": "",
          "type": "tuple[]"
        }
      ],
      "stateMutability": "view",
      "type": "function"
    },
    {
      "inputs": [
        {
          "internalType": "address",
          "name": "",
          "type": "address"
        }
      ],
      "name": "isExist",
      "outputs": [
        {
          "internalType": "bool",
          "name": "",
          "type": "bool"
        }
      ],
      "stateMutability": "view",
      "type": "function"
    },
    {
      "inputs": [],
      "name": "owner",
      "outputs": [
        {
          "internalType": "address",
          "name": "",
          "type": "address"
        }
      ],
      "stateMutability": "view",
      "type": "function"
    },
    {
      "inputs": [],
      "name": "patientCount",
      "outputs": [
        {
          "internalType": "uint256",
          "name": "",
          "type": "uint256"
        }
      ],
      "stateMutability": "view",
      "type": "function"
    },
    {
      "inputs": [
        {
          "internalType": "uint256",
          "name": "",
          "type": "uint256"
        }
      ],
      "name": "patientReports",
      "outputs": [
        {
          "internalType": "uint256",
          "name": "reportId",
          "type": "uint256"
        },
        {
          "internalType": "address",
          "name": "patientWalletAddress",
          "type": "address"
        },
        {
          "internalType": "string",
          "name": "testResult",
          "type": "string"
        },
        {
          "internalType": "bytes32",
          "name": "txHash",
          "type": "bytes32"
        },
        {
          "internalType": "uint256",
          "name": "dateCreated",
          "type": "uint256"
        }
      ],
      "stateMutability": "view",
      "type": "function"
    },
    {
      "inputs": [
        {
          "internalType": "uint256",
          "name": "",
          "type": "uint256"
        }
      ],
      "name": "patients",
      "outputs": [
        {
          "internalType": "uint256",
          "name": "id",
          "type": "uint256"
        },
        {
          "internalType": "address",
          "name": "patientWalletAddress",
          "type": "address"
        },
        {
          "internalType": "string",
          "name": "patientIPFSHash",
          "type": "string"
        },
        {
          "internalType": "bytes32",
          "name": "txHash",
          "type": "bytes32"
        },
        {
          "internalType": "uint256",
          "name": "dateCreated",
          "type": "uint256"
        }
      ],
      "stateMutability": "view",
      "type": "function"
    },
    {
      "inputs": [],
      "name": "reportCount",
      "outputs": [
        {
          "internalType": "uint256",
          "name": "",
          "type": "uint256"
        }
      ],
      "stateMutability": "view",
      "type": "function"
    }
  ],
  "bytecode": "0x608060405234801561001057600080fd5b5033600460006101000a81548173ffffffffffffffffffffffffffffffffffffffff021916908373ffffffffffffffffffffffffffffffffffffffff1602179055506129a6806100616000396000f3fe608060405234801561001057600080fd5b50600436106100ce5760003560e01c806348e818521161008c5780638da5cb5b116100665780638da5cb5b1461023157806393119a831461024f578063a0303c4114610283578063db66c060146102a1576100ce565b806348e81852146101ac5780636df0b3a2146101e15780637a04e23914610215576100ce565b806213eb4b146100d35780630311ed9d14610103578063047e6ea714610136578063185c6f8414610154578063435d79351461017257806343e08ad114610190575b600080fd5b6100ed60048036038101906100e8919061194c565b6102bd565b6040516100fa9190611994565b60405180910390f35b61011d6004803603810190610118919061194c565b6102dd565b60405161012d9493929190611b42565b60405180910390f35b61013e6105b9565b60405161014b9190611d93565b60405180910390f35b61015c6107f7565b6040516101699190611db5565b60405180910390f35b61017a6107fd565b6040516101879190611f08565b60405180910390f35b6101aa60048036038101906101a59190611f56565b610962565b005b6101c660048036038101906101c1919061194c565b6109ed565b6040516101d896959493929190611fcd565b60405180910390f35b6101fb60048036038101906101f69190612068565b610de2565b60405161020c959493929190612095565b60405180910390f35b61022f600480360381019061022a9190612224565b610ed0565b005b6102396112e7565b6040516102469190612293565b60405180910390f35b61026960048036038101906102649190612068565b61130d565b60405161027a959493929190612095565b60405180910390f35b61028b6113fb565b6040516102989190611db5565b60405180910390f35b6102bb60048036038101906102b691906122ae565b611401565b005b60076020528060005260406000206000915054906101000a900460ff1681565b6000606060008084600460009054906101000a900473ffffffffffffffffffffffffffffffffffffffff1673ffffffffffffffffffffffffffffffffffffffff163373ffffffffffffffffffffffffffffffffffffffff16148061036c57508073ffffffffffffffffffffffffffffffffffffffff163373ffffffffffffffffffffffffffffffffffffffff16145b6103ab576040517f08c379a00000000000000000000000000000000000000000000000000000000081526004016103a290612356565b60405180910390fd5b600660008773ffffffffffffffffffffffffffffffffffffffff1673ffffffffffffffffffffffffffffffffffffffff16815260200190815260200160002060010160009054906101000a900473ffffffffffffffffffffffffffffffffffffffff16600560008873ffffffffffffffffffffffffffffffffffffffff1673ffffffffffffffffffffffffffffffffffffffff168152602001908152602001600020600301600660008973ffffffffffffffffffffffffffffffffffffffff1673ffffffffffffffffffffffffffffffffffffffff16815260200190815260200160002060030154600660008a73ffffffffffffffffffffffffffffffffffffffff1673ffffffffffffffffffffffffffffffffffffffff1681526020019081526020016000206004015482805480602002602001604051908101604052809291908181526020016000905b828210156105a3578382906000526020600020018054610516906123a5565b80601f0160208091040260200160405190810160405280929190818152602001828054610542906123a5565b801561058f5780601f106105645761010080835404028352916020019161058f565b820191906000526020600020905b81548152906001019060200180831161057257829003601f168201915b5050505050815260200190600101906104f7565b5050505092509450945094509450509193509193565b60606002805480602002602001604051908101604052809291908181526020016000905b828210156107ee57838290600052602060002090600602016040518060c0016040529081600082015481526020016001820160009054906101000a900473ffffffffffffffffffffffffffffffffffffffff1673ffffffffffffffffffffffffffffffffffffffff1673ffffffffffffffffffffffffffffffffffffffff168152602001600282018054610670906123a5565b80601f016020809104026020016040519081016040528092919081815260200182805461069c906123a5565b80156106e95780601f106106be576101008083540402835291602001916106e9565b820191906000526020600020905b8154815290600101906020018083116106cc57829003601f168201915b5050505050815260200160038201805480602002602001604051908101604052809291908181526020016000905b828210156107c3578382906000526020600020018054610736906123a5565b80601f0160208091040260200160405190810160405280929190818152602001828054610762906123a5565b80156107af5780601f10610784576101008083540402835291602001916107af565b820191906000526020600020905b81548152906001019060200180831161079257829003601f168201915b505050505081526020019060010190610717565b50505050815260200160048201548152602001600582015481525050815260200190600101906105dd565b50505050905090565b60015481565b60606003805480602002602001604051908101604052809291908181526020016000905b8282101561095957838290600052602060002090600502016040518060a0016040529081600082015481526020016001820160009054906101000a900473ffffffffffffffffffffffffffffffffffffffff1673ffffffffffffffffffffffffffffffffffffffff1673ffffffffffffffffffffffffffffffffffffffff1681526020016002820180546108b4906123a5565b80601f01602080910402602001604051908101604052809291908181526020018280546108e0906123a5565b801561092d5780601f106109025761010080835404028352916020019161092d565b820191906000526020600020905b81548152906001019060200180831161091057829003601f168201915b505050505081526020016003820154815260200160048201548152505081526020019060010190610821565b50505050905090565b60006001905060008054116109ac576040517f08c379a00000000000000000000000000000000000000000000000000000000081526004016109a390612422565b60405180910390fd5b60006002826000546109be9190612471565b815481106109cf576109ce6124a5565b5b90600052602060002090600602019050828160040181905550505050565b60008060608060008086600460009054906101000a900473ffffffffffffffffffffffffffffffffffffffff1673ffffffffffffffffffffffffffffffffffffffff163373ffffffffffffffffffffffffffffffffffffffff161480610a7e57508073ffffffffffffffffffffffffffffffffffffffff163373ffffffffffffffffffffffffffffffffffffffff16145b610abd576040517f08c379a0000000000000000000000000000000000000000000000000000000008152600401610ab490612356565b60405180910390fd5b600560008973ffffffffffffffffffffffffffffffffffffffff1673ffffffffffffffffffffffffffffffffffffffff16815260200190815260200160002060000154600560008a73ffffffffffffffffffffffffffffffffffffffff1673ffffffffffffffffffffffffffffffffffffffff16815260200190815260200160002060010160009054906101000a900473ffffffffffffffffffffffffffffffffffffffff16600560008b73ffffffffffffffffffffffffffffffffffffffff1673ffffffffffffffffffffffffffffffffffffffff168152602001908152602001600020600201600560008c73ffffffffffffffffffffffffffffffffffffffff1673ffffffffffffffffffffffffffffffffffffffff168152602001908152602001600020600301600560008d73ffffffffffffffffffffffffffffffffffffffff1673ffffffffffffffffffffffffffffffffffffffff16815260200190815260200160002060040154600560008e73ffffffffffffffffffffffffffffffffffffffff1673ffffffffffffffffffffffffffffffffffffffff16815260200190815260200160002060050154838054610c79906123a5565b80601f0160208091040260200160405190810160405280929190818152602001828054610ca5906123a5565b8015610cf25780601f10610cc757610100808354040283529160200191610cf2565b820191906000526020600020905b815481529060010190602001808311610cd557829003601f168201915b5050505050935082805480602002602001604051908101604052809291908181526020016000905b82821015610dc6578382906000526020600020018054610d39906123a5565b80601f0160208091040260200160405190810160405280929190818152602001828054610d65906123a5565b8015610db25780601f10610d8757610100808354040283529160200191610db2565b820191906000526020600020905b815481529060010190602001808311610d9557829003601f168201915b505050505081526020019060010190610d1a565b5050505092509650965096509650965096505091939550919395565b60038181548110610df257600080fd5b90600052602060002090600502016000915090508060000154908060010160009054906101000a900473ffffffffffffffffffffffffffffffffffffffff1690806002018054610e41906123a5565b80601f0160208091040260200160405190810160405280929190818152602001828054610e6d906123a5565b8015610eba5780601f10610e8f57610100808354040283529160200191610eba565b820191906000526020600020905b815481529060010190602001808311610e9d57829003601f168201915b5050505050908060030154908060040154905085565b8173ffffffffffffffffffffffffffffffffffffffff16600560008473ffffffffffffffffffffffffffffffffffffffff1673ffffffffffffffffffffffffffffffffffffffff16815260200190815260200160002060010160009054906101000a900473ffffffffffffffffffffffffffffffffffffffff1673ffffffffffffffffffffffffffffffffffffffff1614610fa0576040517f08c379a0000000000000000000000000000000000000000000000000000000008152600401610f9790612520565b60405180910390fd5b8173ffffffffffffffffffffffffffffffffffffffff1660028481548110610fcb57610fca6124a5565b5b906000526020600020906006020160010160009054906101000a900473ffffffffffffffffffffffffffffffffffffffff1673ffffffffffffffffffffffffffffffffffffffff1614611053576040517f08c379a000000000000000000000000000000000000000000000000000000000815260040161104a906125b2565b60405180910390fd5b6000600560008473ffffffffffffffffffffffffffffffffffffffff1673ffffffffffffffffffffffffffffffffffffffff168152602001908152602001600020905080600301829080600181540180825580915050600190039060005260206000200160009091909190915090816110cc919061277e565b50600284815481106110e1576110e06124a5565b5b906000526020600020906006020160030182908060018154018082558091505060019003906000526020600020016000909190919091509081611124919061277e565b506000434090506000600660008673ffffffffffffffffffffffffffffffffffffffff1673ffffffffffffffffffffffffffffffffffffffff16815260200190815260200160002090506001548160000181905550848160010160006101000a81548173ffffffffffffffffffffffffffffffffffffffff021916908373ffffffffffffffffffffffffffffffffffffffff160217905550838160020190816111cd919061277e565b5081816003018190555042816004018190555060036040518060a0016040528060015481526020018773ffffffffffffffffffffffffffffffffffffffff1681526020018681526020018481526020014281525090806001815401808255809150506001900390600052602060002090600502016000909190919091506000820151816000015560208201518160010160006101000a81548173ffffffffffffffffffffffffffffffffffffffff021916908373ffffffffffffffffffffffffffffffffffffffff16021790555060408201518160020190816112b0919061277e565b5060608201518160030155608082015181600401555050600160008154809291906112da90612850565b9190505550505050505050565b600460009054906101000a900473ffffffffffffffffffffffffffffffffffffffff1681565b6002818154811061131d57600080fd5b90600052602060002090600602016000915090508060000154908060010160009054906101000a900473ffffffffffffffffffffffffffffffffffffffff169080600201805461136c906123a5565b80601f0160208091040260200160405190810160405280929190818152602001828054611398906123a5565b80156113e55780601f106113ba576101008083540402835291602001916113e5565b820191906000526020600020905b8154815290600101906020018083116113c857829003601f168201915b5050505050908060040154908060050154905085565b60005481565b600460009054906101000a900473ffffffffffffffffffffffffffffffffffffffff1673ffffffffffffffffffffffffffffffffffffffff163373ffffffffffffffffffffffffffffffffffffffff1614611491576040517f08c379a000000000000000000000000000000000000000000000000000000000815260040161148890612356565b60405180910390fd5b600760008373ffffffffffffffffffffffffffffffffffffffff1673ffffffffffffffffffffffffffffffffffffffff16815260200190815260200160002060009054906101000a900460ff161561151e576040517f08c379a0000000000000000000000000000000000000000000000000000000008152600401611515906128e4565b60405180910390fd5b6000815111611562576040517f08c379a000000000000000000000000000000000000000000000000000000000815260040161155990612950565b60405180910390fd5b6000600560008473ffffffffffffffffffffffffffffffffffffffff1673ffffffffffffffffffffffffffffffffffffffff168152602001908152602001600020905060606000434090506000429050828460030190805190602001906115ca929190611800565b50600054846000018190555043408460040181905550428460050181905550858460010160006101000a81548173ffffffffffffffffffffffffffffffffffffffff021916908373ffffffffffffffffffffffffffffffffffffffff1602179055508484600201908161163d919061277e565b5060026040518060c0016040528060005481526020018873ffffffffffffffffffffffffffffffffffffffff1681526020018781526020018581526020018481526020018381525090806001815401808255809150506001900390600052602060002090600602016000909190919091506000820151816000015560208201518160010160006101000a81548173ffffffffffffffffffffffffffffffffffffffff021916908373ffffffffffffffffffffffffffffffffffffffff1602179055506040820151816002019081611714919061277e565b506060820151816003019080519060200190611731929190611800565b506080820151816004015560a0820151816005015550506001600760008873ffffffffffffffffffffffffffffffffffffffff1673ffffffffffffffffffffffffffffffffffffffff16815260200190815260200160002060006101000a81548160ff0219169083151502179055506000808154809291906117b290612850565b91905055507f2e42963c20afb77b4cb52cc774c84b1a34230ade33265552016c8e8453ed4808600054878785856040516117f0959493929190612095565b60405180910390a1505050505050565b828054828255906000526020600020908101928215611848579160200282015b82811115611847578251829081611837919061277e565b5091602001919060010190611820565b5b5090506118559190611859565b5090565b5b808211156118795760008181611870919061187d565b5060010161185a565b5090565b508054611889906123a5565b6000825580601f1061189b57506118ba565b601f0160209004906000526020600020908101906118b991906118bd565b5b50565b5b808211156118d65760008160009055506001016118be565b5090565b6000604051905090565b600080fd5b600080fd5b600073ffffffffffffffffffffffffffffffffffffffff82169050919050565b6000611919826118ee565b9050919050565b6119298161190e565b811461193457600080fd5b50565b60008135905061194681611920565b92915050565b600060208284031215611962576119616118e4565b5b600061197084828501611937565b91505092915050565b60008115159050919050565b61198e81611979565b82525050565b60006020820190506119a96000830184611985565b92915050565b6119b88161190e565b82525050565b600081519050919050565b600082825260208201905092915050565b6000819050602082019050919050565b600081519050919050565b600082825260208201905092915050565b60005b83811015611a24578082015181840152602081019050611a09565b60008484015250505050565b6000601f19601f8301169050919050565b6000611a4c826119ea565b611a5681856119f5565b9350611a66818560208601611a06565b611a6f81611a30565b840191505092915050565b6000611a868383611a41565b905092915050565b6000602082019050919050565b6000611aa6826119be565b611ab081856119c9565b935083602082028501611ac2856119da565b8060005b85811015611afe5784840389528151611adf8582611a7a565b9450611aea83611a8e565b925060208a01995050600181019050611ac6565b50829750879550505050505092915050565b6000819050919050565b611b2381611b10565b82525050565b6000819050919050565b611b3c81611b29565b82525050565b6000608082019050611b5760008301876119af565b8181036020830152611b698186611a9b565b9050611b786040830185611b1a565b611b856060830184611b33565b95945050505050565b600081519050919050565b600082825260208201905092915050565b6000819050602082019050919050565b611bc381611b29565b82525050565b611bd28161190e565b82525050565b600082825260208201905092915050565b6000611bf4826119be565b611bfe8185611bd8565b935083602082028501611c10856119da565b8060005b85811015611c4c5784840389528151611c2d8582611a7a565b9450611c3883611a8e565b925060208a01995050600181019050611c14565b50829750879550505050505092915050565b611c6781611b10565b82525050565b600060c083016000830151611c856000860182611bba565b506020830151611c986020860182611bc9565b5060408301518482036040860152611cb08282611a41565b91505060608301518482036060860152611cca8282611be9565b9150506080830151611cdf6080860182611c5e565b5060a0830151611cf260a0860182611bba565b508091505092915050565b6000611d098383611c6d565b905092915050565b6000602082019050919050565b6000611d2982611b8e565b611d338185611b99565b935083602082028501611d4585611baa565b8060005b85811015611d815784840389528151611d628582611cfd565b9450611d6d83611d11565b925060208a01995050600181019050611d49565b50829750879550505050505092915050565b60006020820190508181036000830152611dad8184611d1e565b905092915050565b6000602082019050611dca6000830184611b33565b92915050565b600081519050919050565b600082825260208201905092915050565b6000819050602082019050919050565b600060a083016000830151611e146000860182611bba565b506020830151611e276020860182611bc9565b5060408301518482036040860152611e3f8282611a41565b9150506060830151611e546060860182611c5e565b506080830151611e676080860182611bba565b508091505092915050565b6000611e7e8383611dfc565b905092915050565b6000602082019050919050565b6000611e9e82611dd0565b611ea88185611ddb565b935083602082028501611eba85611dec565b8060005b85811015611ef65784840389528151611ed78582611e72565b9450611ee283611e86565b925060208a01995050600181019050611ebe565b50829750879550505050505092915050565b60006020820190508181036000830152611f228184611e93565b905092915050565b611f3381611b10565b8114611f3e57600080fd5b50565b600081359050611f5081611f2a565b92915050565b600060208284031215611f6c57611f6b6118e4565b5b6000611f7a84828501611f41565b91505092915050565b600082825260208201905092915050565b6000611f9f826119ea565b611fa98185611f83565b9350611fb9818560208601611a06565b611fc281611a30565b840191505092915050565b600060c082019050611fe26000830189611b33565b611fef60208301886119af565b81810360408301526120018187611f94565b905081810360608301526120158186611a9b565b90506120246080830185611b1a565b61203160a0830184611b33565b979650505050505050565b61204581611b29565b811461205057600080fd5b50565b6000813590506120628161203c565b92915050565b60006020828403121561207e5761207d6118e4565b5b600061208c84828501612053565b91505092915050565b600060a0820190506120aa6000830188611b33565b6120b760208301876119af565b81810360408301526120c98186611f94565b90506120d86060830185611b1a565b6120e56080830184611b33565b9695505050505050565b600080fd5b600080fd5b7f4e487b7100000000000000000000000000000000000000000000000000000000600052604160045260246000fd5b61213182611a30565b810181811067ffffffffffffffff821117156121505761214f6120f9565b5b80604052505050565b60006121636118da565b905061216f8282612128565b919050565b600067ffffffffffffffff82111561218f5761218e6120f9565b5b61219882611a30565b9050602081019050919050565b82818337600083830152505050565b60006121c76121c284612174565b612159565b9050828152602081018484840111156121e3576121e26120f4565b5b6121ee8482856121a5565b509392505050565b600082601f83011261220b5761220a6120ef565b5b813561221b8482602086016121b4565b91505092915050565b60008060006060848603121561223d5761223c6118e4565b5b600061224b86828701612053565b935050602061225c86828701611937565b925050604084013567ffffffffffffffff81111561227d5761227c6118e9565b5b612289868287016121f6565b9150509250925092565b60006020820190506122a860008301846119af565b92915050565b600080604083850312156122c5576122c46118e4565b5b60006122d385828601611937565b925050602083013567ffffffffffffffff8111156122f4576122f36118e9565b5b612300858286016121f6565b9150509250929050565b7f596f7520617265206e6f7420746865206f776e65720000000000000000000000600082015250565b6000612340601583611f83565b915061234b8261230a565b602082019050919050565b6000602082019050818103600083015261236f81612333565b9050919050565b7f4e487b7100000000000000000000000000000000000000000000000000000000600052602260045260246000fd5b600060028204905060018216806123bd57607f821691505b6020821081036123d0576123cf612376565b5b50919050565b7f4e6f2070726576696f7573207472616e73616374696f6e206578697374730000600082015250565b600061240c601e83611f83565b9150612417826123d6565b602082019050919050565b6000602082019050818103600083015261243b816123ff565b9050919050565b7f4e487b7100000000000000000000000000000000000000000000000000000000600052601160045260246000fd5b600061247c82611b29565b915061248783611b29565b925082820390508181111561249f5761249e612442565b5b92915050565b7f4e487b7100000000000000000000000000000000000000000000000000000000600052603260045260246000fd5b7f50617469656e7420646f6573206e6f7420657869737400000000000000000000600082015250565b600061250a601683611f83565b9150612515826124d4565b602082019050919050565b60006020820190508181036000830152612539816124fd565b9050919050565b7f4164647265737320646f65732e206e6f7420636f72726573706f6e642077697460008201527f682074686520696e646578000000000000000000000000000000000000000000602082015250565b600061259c602b83611f83565b91506125a782612540565b604082019050919050565b600060208201905081810360008301526125cb8161258f565b9050919050565b60008190508160005260206000209050919050565b60006020601f8301049050919050565b600082821b905092915050565b6000600883026126347fffffffffffffffffffffffffffffffffffffffffffffffffffffffffffffffff826125f7565b61263e86836125f7565b95508019841693508086168417925050509392505050565b6000819050919050565b600061267b61267661267184611b29565b612656565b611b29565b9050919050565b6000819050919050565b61269583612660565b6126a96126a182612682565b848454612604565b825550505050565b600090565b6126be6126b1565b6126c981848461268c565b505050565b5b818110156126ed576126e26000826126b6565b6001810190506126cf565b5050565b601f82111561273257612703816125d2565b61270c846125e7565b8101602085101561271b578190505b61272f612727856125e7565b8301826126ce565b50505b505050565b600082821c905092915050565b600061275560001984600802612737565b1980831691505092915050565b600061276e8383612744565b9150826002028217905092915050565b612787826119ea565b67ffffffffffffffff8111156127a05761279f6120f9565b5b6127aa82546123a5565b6127b58282856126f1565b600060209050601f8311600181146127e857600084156127d6578287015190505b6127e08582612762565b865550612848565b601f1984166127f6866125d2565b60005b8281101561281e578489015182556001820191506020850194506020810190506127f9565b8683101561283b5784890151612837601f891682612744565b8355505b6001600288020188555050505b505050505050565b600061285b82611b29565b91507fffffffffffffffffffffffffffffffffffffffffffffffffffffffffffffffff820361288d5761288c612442565b5b600182019050919050565b7f50617469656e74207265636f726420616c726561647920657869737400000000600082015250565b60006128ce601c83611f83565b91506128d982612898565b602082019050919050565b600060208201905081810360008301526128fd816128c1565b9050919050565b7f4950465320486173682072657175697265640000000000000000000000000000600082015250565b600061293a601283611f83565b915061294582612904565b602082019050919050565b600060208201905081810360008301526129698161292d565b905091905056fea264697066735822122089423e00d693fa53eb11930f116ef7aac146e0c4c4029f04d4ff79cd46a86ae564736f6c63430008110033",
  "linkReferences": {},
  "deployedLinkReferences": {}
}